{
	"twitter.sol": {
		"TweetContract": {
			"abi": [
				{
					"inputs": [
						{
							"internalType": "address",
							"name": "_operator",
							"type": "address"
						}
					],
					"name": "allow",
					"outputs": [],
					"stateMutability": "nonpayable",
					"type": "function"
				},
				{
					"inputs": [
						{
							"internalType": "address",
							"name": "",
							"type": "address"
						},
						{
							"internalType": "uint256",
							"name": "",
							"type": "uint256"
						}
					],
					"name": "conversations",
					"outputs": [
						{
							"internalType": "uint256",
							"name": "id",
							"type": "uint256"
						},
						{
							"internalType": "string",
							"name": "content",
							"type": "string"
						},
						{
							"internalType": "address",
							"name": "from",
							"type": "address"
						},
						{
							"internalType": "address",
							"name": "to",
							"type": "address"
						},
						{
							"internalType": "uint256",
							"name": "createdAt",
							"type": "uint256"
						}
					],
					"stateMutability": "view",
					"type": "function"
				},
				{
					"inputs": [
						{
							"internalType": "address",
							"name": "_operator",
							"type": "address"
						}
					],
					"name": "disallow",
					"outputs": [],
					"stateMutability": "nonpayable",
					"type": "function"
				},
				{
					"inputs": [
						{
							"internalType": "address",
							"name": "_followed",
							"type": "address"
						}
					],
					"name": "follow",
					"outputs": [],
					"stateMutability": "nonpayable",
					"type": "function"
				},
				{
					"inputs": [
						{
							"internalType": "address",
							"name": "",
							"type": "address"
						},
						{
							"internalType": "uint256",
							"name": "",
							"type": "uint256"
						}
					],
					"name": "following",
					"outputs": [
						{
							"internalType": "address",
							"name": "",
							"type": "address"
						}
					],
					"stateMutability": "view",
					"type": "function"
				},
				{
					"inputs": [
						{
							"internalType": "address",
							"name": "",
							"type": "address"
						},
						{
							"internalType": "address",
							"name": "",
							"type": "address"
						}
					],
					"name": "operators",
					"outputs": [
						{
							"internalType": "bool",
							"name": "",
							"type": "bool"
						}
					],
					"stateMutability": "view",
					"type": "function"
				},
				{
					"inputs": [
						{
							"internalType": "address",
							"name": "_from",
							"type": "address"
						},
						{
							"internalType": "address",
							"name": "_to",
							"type": "address"
						},
						{
							"internalType": "string",
							"name": "_content",
							"type": "string"
						}
					],
					"name": "sendMessage",
					"outputs": [],
					"stateMutability": "nonpayable",
					"type": "function"
				},
				{
					"inputs": [
						{
							"internalType": "address",
							"name": "_to",
							"type": "address"
						},
						{
							"internalType": "string",
							"name": "_content",
							"type": "string"
						}
					],
					"name": "sendMessage",
					"outputs": [],
					"stateMutability": "nonpayable",
					"type": "function"
				},
				{
					"inputs": [
						{
							"internalType": "address",
							"name": "_from",
							"type": "address"
						},
						{
							"internalType": "string",
							"name": "_content",
							"type": "string"
						}
					],
					"name": "tweet",
					"outputs": [],
					"stateMutability": "nonpayable",
					"type": "function"
				},
				{
					"inputs": [
						{
							"internalType": "string",
							"name": "_content",
							"type": "string"
						}
					],
					"name": "tweet",
					"outputs": [],
					"stateMutability": "nonpayable",
					"type": "function"
				},
				{
					"inputs": [
						{
							"internalType": "uint256",
							"name": "",
							"type": "uint256"
						}
					],
					"name": "tweets",
					"outputs": [
						{
							"internalType": "uint256",
							"name": "id",
							"type": "uint256"
						},
						{
							"internalType": "address",
							"name": "author",
							"type": "address"
						},
						{
							"internalType": "string",
							"name": "content",
							"type": "string"
						},
						{
							"internalType": "uint256",
							"name": "createdAt",
							"type": "uint256"
						}
					],
					"stateMutability": "view",
					"type": "function"
				},
				{
					"inputs": [
						{
							"internalType": "address",
							"name": "",
							"type": "address"
						},
						{
							"internalType": "uint256",
							"name": "",
							"type": "uint256"
						}
					],
					"name": "tweetsOf",
					"outputs": [
						{
							"internalType": "uint256",
							"name": "",
							"type": "uint256"
						}
					],
					"stateMutability": "view",
					"type": "function"
				}
			],
			"devdoc": {
				"kind": "dev",
				"methods": {},
				"version": 1
			},
			"evm": {
				"assembly": "    /* \"twitter.sol\":76:1907  contract TweetContract {... */\n  mstore(0x40, 0x80)\n  callvalue\n  dup1\n  iszero\n  tag_1\n  jumpi\n  0x00\n  dup1\n  revert\ntag_1:\n  pop\n  dataSize(sub_0)\n  dup1\n  dataOffset(sub_0)\n  0x00\n  codecopy\n  0x00\n  return\nstop\n\nsub_0: assembly {\n        /* \"twitter.sol\":76:1907  contract TweetContract {... */\n      mstore(0x40, 0x80)\n      callvalue\n      dup1\n      iszero\n      tag_1\n      jumpi\n      0x00\n      dup1\n      revert\n    tag_1:\n      pop\n      jumpi(tag_2, lt(calldatasize, 0x04))\n      shr(0xe0, calldataload(0x00))\n      dup1\n      0xb88e318d\n      gt\n      tag_15\n      jumpi\n      dup1\n      0xb88e318d\n      eq\n      tag_9\n      jumpi\n      dup1\n      0xd21d1596\n      eq\n      tag_10\n      jumpi\n      dup1\n      0xde6f24bb\n      eq\n      tag_11\n      jumpi\n      dup1\n      0xe8d857b0\n      eq\n      tag_12\n      jumpi\n      dup1\n      0xfb46d4c5\n      eq\n      tag_13\n      jumpi\n      dup1\n      0xff9913e8\n      eq\n      tag_14\n      jumpi\n      jump(tag_2)\n    tag_15:\n      dup1\n      0x2637588e\n      eq\n      tag_3\n      jumpi\n      dup1\n      0x3befea09\n      eq\n      tag_4\n      jumpi\n      dup1\n      0x4dbf27cc\n      eq\n      tag_5\n      jumpi\n      dup1\n      0x9139cda5\n      eq\n      tag_6\n      jumpi\n      dup1\n      0xa9ed9cb8\n      eq\n      tag_7\n      jumpi\n      dup1\n      0xaf22bf94\n      eq\n      tag_8\n      jumpi\n    tag_2:\n      0x00\n      dup1\n      revert\n        /* \"twitter.sol\":522:579  mapping(address=>mapping(address=>bool)) public operators */\n    tag_3:\n      tag_16\n      0x04\n      dup1\n      calldatasize\n      sub\n      dup2\n      add\n      swap1\n      tag_17\n      swap2\n      swap1\n      tag_18\n      jump\t// in\n    tag_17:\n      tag_19\n      jump\t// in\n    tag_16:\n      mload(0x40)\n      tag_20\n      swap2\n      swap1\n      tag_21\n      jump\t// in\n    tag_20:\n      mload(0x40)\n      dup1\n      swap2\n      sub\n      swap1\n      return\n        /* \"twitter.sol\":467:515  mapping(address=>Message[]) public conversations */\n    tag_4:\n      tag_22\n      0x04\n      dup1\n      calldatasize\n      sub\n      dup2\n      add\n      swap1\n      tag_23\n      swap2\n      swap1\n      tag_24\n      jump\t// in\n    tag_23:\n      tag_25\n      jump\t// in\n    tag_22:\n      mload(0x40)\n      tag_26\n      swap6\n      swap5\n      swap4\n      swap3\n      swap2\n      swap1\n      tag_27\n      jump\t// in\n    tag_26:\n      mload(0x40)\n      dup1\n      swap2\n      sub\n      swap1\n      return\n        /* \"twitter.sol\":1587:1684  function follow(address _followed) public{... */\n    tag_5:\n      tag_28\n      0x04\n      dup1\n      calldatasize\n      sub\n      dup2\n      add\n      swap1\n      tag_29\n      swap2\n      swap1\n      tag_30\n      jump\t// in\n    tag_29:\n      tag_31\n      jump\t// in\n    tag_28:\n      stop\n        /* \"twitter.sol\":586:630  mapping(address=>address[]) public following */\n    tag_6:\n      tag_32\n      0x04\n      dup1\n      calldatasize\n      sub\n      dup2\n      add\n      swap1\n      tag_33\n      swap2\n      swap1\n      tag_24\n      jump\t// in\n    tag_33:\n      tag_34\n      jump\t// in\n    tag_32:\n      mload(0x40)\n      tag_35\n      swap2\n      swap1\n      tag_36\n      jump\t// in\n    tag_35:\n      mload(0x40)\n      dup1\n      swap2\n      sub\n      swap1\n      return\n        /* \"twitter.sol\":1801:1904  function disallow(address _operator) public {... */\n    tag_7:\n      tag_37\n      0x04\n      dup1\n      calldatasize\n      sub\n      dup2\n      add\n      swap1\n      tag_38\n      swap2\n      swap1\n      tag_30\n      jump\t// in\n    tag_38:\n      tag_39\n      jump\t// in\n    tag_37:\n      stop\n        /* \"twitter.sol\":420:460  mapping(address=>uint[]) public tweetsOf */\n    tag_8:\n      tag_40\n      0x04\n      dup1\n      calldatasize\n      sub\n      dup2\n      add\n      swap1\n      tag_41\n      swap2\n      swap1\n      tag_24\n      jump\t// in\n    tag_41:\n      tag_42\n      jump\t// in\n    tag_40:\n      mload(0x40)\n      tag_43\n      swap2\n      swap1\n      tag_44\n      jump\t// in\n    tag_43:\n      mload(0x40)\n      dup1\n      swap2\n      sub\n      swap1\n      return\n        /* \"twitter.sol\":1442:1579  function sendMessage(address _from , address _to , string memory _content) public {... */\n    tag_9:\n      tag_45\n      0x04\n      dup1\n      calldatasize\n      sub\n      dup2\n      add\n      swap1\n      tag_46\n      swap2\n      swap1\n      tag_47\n      jump\t// in\n    tag_46:\n      tag_48\n      jump\t// in\n    tag_45:\n      stop\n        /* \"twitter.sol\":1198:1302  function tweet(address _from , string memory _content) public {... */\n    tag_10:\n      tag_49\n      0x04\n      dup1\n      calldatasize\n      sub\n      dup2\n      add\n      swap1\n      tag_50\n      swap2\n      swap1\n      tag_51\n      jump\t// in\n    tag_50:\n      tag_52\n      jump\t// in\n    tag_49:\n      stop\n        /* \"twitter.sol\":1310:1434  function sendMessage(address _to , string memory _content) public {... */\n    tag_11:\n      tag_53\n      0x04\n      dup1\n      calldatasize\n      sub\n      dup2\n      add\n      swap1\n      tag_54\n      swap2\n      swap1\n      tag_51\n      jump\t// in\n    tag_54:\n      tag_55\n      jump\t// in\n    tag_53:\n      stop\n        /* \"twitter.sol\":379:413  mapping(uint=>Tweet) public tweets */\n    tag_12:\n      tag_56\n      0x04\n      dup1\n      calldatasize\n      sub\n      dup2\n      add\n      swap1\n      tag_57\n      swap2\n      swap1\n      tag_58\n      jump\t// in\n    tag_57:\n      tag_59\n      jump\t// in\n    tag_56:\n      mload(0x40)\n      tag_60\n      swap5\n      swap4\n      swap3\n      swap2\n      swap1\n      tag_61\n      jump\t// in\n    tag_60:\n      mload(0x40)\n      dup1\n      swap2\n      sub\n      swap1\n      return\n        /* \"twitter.sol\":1095:1190  function tweet(string memory _content) public {... */\n    tag_13:\n      tag_62\n      0x04\n      dup1\n      calldatasize\n      sub\n      dup2\n      add\n      swap1\n      tag_63\n      swap2\n      swap1\n      tag_64\n      jump\t// in\n    tag_63:\n      tag_65\n      jump\t// in\n    tag_62:\n      stop\n        /* \"twitter.sol\":1693:1792  function allow(address _operator) public {... */\n    tag_14:\n      tag_66\n      0x04\n      dup1\n      calldatasize\n      sub\n      dup2\n      add\n      swap1\n      tag_67\n      swap2\n      swap1\n      tag_30\n      jump\t// in\n    tag_67:\n      tag_68\n      jump\t// in\n    tag_66:\n      stop\n        /* \"twitter.sol\":522:579  mapping(address=>mapping(address=>bool)) public operators */\n    tag_19:\n      mstore(0x20, 0x03)\n      dup2\n      0x00\n      mstore\n      mstore(0x20, keccak256(0x00, 0x40))\n      dup1\n      0x00\n      mstore\n      keccak256(0x00, 0x40)\n      0x00\n      swap2\n      pop\n      swap2\n      pop\n      swap1\n      sload\n      swap1\n      0x0100\n      exp\n      swap1\n      div\n      0xff\n      and\n      dup2\n      jump\t// out\n        /* \"twitter.sol\":467:515  mapping(address=>Message[]) public conversations */\n    tag_25:\n      mstore(0x20, 0x02)\n      dup2\n      0x00\n      mstore\n      keccak256(0x00, 0x40)\n      dup2\n      dup2\n      sload\n      dup2\n      lt\n      tag_69\n      jumpi\n      0x00\n      dup1\n      revert\n    tag_69:\n      swap1\n      0x00\n      mstore\n      keccak256(0x00, 0x20)\n      swap1\n      0x05\n      mul\n      add\n      0x00\n      swap2\n      pop\n      swap2\n      pop\n      pop\n      dup1\n      0x00\n      add\n      sload\n      swap1\n      dup1\n      0x01\n      add\n      dup1\n      sload\n      tag_71\n      swap1\n      tag_72\n      jump\t// in\n    tag_71:\n      dup1\n      0x1f\n      add\n      0x20\n      dup1\n      swap2\n      div\n      mul\n      0x20\n      add\n      mload(0x40)\n      swap1\n      dup2\n      add\n      0x40\n      mstore\n      dup1\n      swap3\n      swap2\n      swap1\n      dup2\n      dup2\n      mstore\n      0x20\n      add\n      dup3\n      dup1\n      sload\n      tag_73\n      swap1\n      tag_72\n      jump\t// in\n    tag_73:\n      dup1\n      iszero\n      tag_74\n      jumpi\n      dup1\n      0x1f\n      lt\n      tag_75\n      jumpi\n      0x0100\n      dup1\n      dup4\n      sload\n      div\n      mul\n      dup4\n      mstore\n      swap2\n      0x20\n      add\n      swap2\n      jump(tag_74)\n    tag_75:\n      dup3\n      add\n      swap2\n      swap1\n      0x00\n      mstore\n      keccak256(0x00, 0x20)\n      swap1\n    tag_76:\n      dup2\n      sload\n      dup2\n      mstore\n      swap1\n      0x01\n      add\n      swap1\n      0x20\n      add\n      dup1\n      dup4\n      gt\n      tag_76\n      jumpi\n      dup3\n      swap1\n      sub\n      0x1f\n      and\n      dup3\n      add\n      swap2\n    tag_74:\n      pop\n      pop\n      pop\n      pop\n      pop\n      swap1\n      dup1\n      0x02\n      add\n      0x00\n      swap1\n      sload\n      swap1\n      0x0100\n      exp\n      swap1\n      div\n      0xffffffffffffffffffffffffffffffffffffffff\n      and\n      swap1\n      dup1\n      0x03\n      add\n      0x00\n      swap1\n      sload\n      swap1\n      0x0100\n      exp\n      swap1\n      div\n      0xffffffffffffffffffffffffffffffffffffffff\n      and\n      swap1\n      dup1\n      0x04\n      add\n      sload\n      swap1\n      pop\n      dup6\n      jump\t// out\n        /* \"twitter.sol\":1587:1684  function follow(address _followed) public{... */\n    tag_31:\n        /* \"twitter.sol\":1639:1648  following */\n      0x04\n        /* \"twitter.sol\":1639:1660  following[msg.sender] */\n      0x00\n        /* \"twitter.sol\":1649:1659  msg.sender */\n      caller\n        /* \"twitter.sol\":1639:1660  following[msg.sender] */\n      0xffffffffffffffffffffffffffffffffffffffff\n      and\n      0xffffffffffffffffffffffffffffffffffffffff\n      and\n      dup2\n      mstore\n      0x20\n      add\n      swap1\n      dup2\n      mstore\n      0x20\n      add\n      0x00\n      keccak256\n        /* \"twitter.sol\":1666:1675  _followed */\n      dup2\n        /* \"twitter.sol\":1639:1676  following[msg.sender].push(_followed) */\n      swap1\n      dup1\n      0x01\n      dup2\n      sload\n      add\n      dup1\n      dup3\n      sstore\n      dup1\n      swap2\n      pop\n      pop\n      0x01\n      swap1\n      sub\n      swap1\n      0x00\n      mstore\n      keccak256(0x00, 0x20)\n      add\n      0x00\n      swap1\n      swap2\n      swap1\n      swap2\n      swap1\n      swap2\n      0x0100\n      exp\n      dup2\n      sload\n      dup2\n      0xffffffffffffffffffffffffffffffffffffffff\n      mul\n      not\n      and\n      swap1\n      dup4\n      0xffffffffffffffffffffffffffffffffffffffff\n      and\n      mul\n      or\n      swap1\n      sstore\n      pop\n        /* \"twitter.sol\":1587:1684  function follow(address _followed) public{... */\n      pop\n      jump\t// out\n        /* \"twitter.sol\":586:630  mapping(address=>address[]) public following */\n    tag_34:\n      mstore(0x20, 0x04)\n      dup2\n      0x00\n      mstore\n      keccak256(0x00, 0x40)\n      dup2\n      dup2\n      sload\n      dup2\n      lt\n      tag_79\n      jumpi\n      0x00\n      dup1\n      revert\n    tag_79:\n      swap1\n      0x00\n      mstore\n      keccak256(0x00, 0x20)\n      add\n      0x00\n      swap2\n      pop\n      swap2\n      pop\n      swap1\n      sload\n      swap1\n      0x0100\n      exp\n      swap1\n      div\n      0xffffffffffffffffffffffffffffffffffffffff\n      and\n      dup2\n      jump\t// out\n        /* \"twitter.sol\":1801:1904  function disallow(address _operator) public {... */\n    tag_39:\n        /* \"twitter.sol\":1891:1896  false */\n      0x00\n        /* \"twitter.sol\":1856:1865  operators */\n      0x03\n        /* \"twitter.sol\":1856:1877  operators[msg.sender] */\n      0x00\n        /* \"twitter.sol\":1866:1876  msg.sender */\n      caller\n        /* \"twitter.sol\":1856:1877  operators[msg.sender] */\n      0xffffffffffffffffffffffffffffffffffffffff\n      and\n      0xffffffffffffffffffffffffffffffffffffffff\n      and\n      dup2\n      mstore\n      0x20\n      add\n      swap1\n      dup2\n      mstore\n      0x20\n      add\n      0x00\n      keccak256\n        /* \"twitter.sol\":1856:1888  operators[msg.sender][_operator] */\n      0x00\n        /* \"twitter.sol\":1878:1887  _operator */\n      dup4\n        /* \"twitter.sol\":1856:1888  operators[msg.sender][_operator] */\n      0xffffffffffffffffffffffffffffffffffffffff\n      and\n      0xffffffffffffffffffffffffffffffffffffffff\n      and\n      dup2\n      mstore\n      0x20\n      add\n      swap1\n      dup2\n      mstore\n      0x20\n      add\n      0x00\n      keccak256\n      0x00\n        /* \"twitter.sol\":1856:1896  operators[msg.sender][_operator] = false */\n      0x0100\n      exp\n      dup2\n      sload\n      dup2\n      0xff\n      mul\n      not\n      and\n      swap1\n      dup4\n      iszero\n      iszero\n      mul\n      or\n      swap1\n      sstore\n      pop\n        /* \"twitter.sol\":1801:1904  function disallow(address _operator) public {... */\n      pop\n      jump\t// out\n        /* \"twitter.sol\":420:460  mapping(address=>uint[]) public tweetsOf */\n    tag_42:\n      mstore(0x20, 0x01)\n      dup2\n      0x00\n      mstore\n      keccak256(0x00, 0x40)\n      dup2\n      dup2\n      sload\n      dup2\n      lt\n      tag_82\n      jumpi\n      0x00\n      dup1\n      revert\n    tag_82:\n      swap1\n      0x00\n      mstore\n      keccak256(0x00, 0x20)\n      add\n      0x00\n      swap2\n      pop\n      swap2\n      pop\n      pop\n      sload\n      dup2\n      jump\t// out\n        /* \"twitter.sol\":1442:1579  function sendMessage(address _from , address _to , string memory _content) public {... */\n    tag_48:\n        /* \"twitter.sol\":1535:1569  _sendMessage(_from, _to, _content) */\n      tag_85\n        /* \"twitter.sol\":1548:1553  _from */\n      dup4\n        /* \"twitter.sol\":1555:1558  _to */\n      dup4\n        /* \"twitter.sol\":1560:1568  _content */\n      dup4\n        /* \"twitter.sol\":1535:1547  _sendMessage */\n      tag_86\n        /* \"twitter.sol\":1535:1569  _sendMessage(_from, _to, _content) */\n      jump\t// in\n    tag_85:\n        /* \"twitter.sol\":1442:1579  function sendMessage(address _from , address _to , string memory _content) public {... */\n      pop\n      pop\n      pop\n      jump\t// out\n        /* \"twitter.sol\":1198:1302  function tweet(address _from , string memory _content) public {... */\n    tag_52:\n        /* \"twitter.sol\":1271:1294  _tweet(_from, _content) */\n      tag_88\n        /* \"twitter.sol\":1278:1283  _from */\n      dup3\n        /* \"twitter.sol\":1285:1293  _content */\n      dup3\n        /* \"twitter.sol\":1271:1277  _tweet */\n      tag_89\n        /* \"twitter.sol\":1271:1294  _tweet(_from, _content) */\n      jump\t// in\n    tag_88:\n        /* \"twitter.sol\":1198:1302  function tweet(address _from , string memory _content) public {... */\n      pop\n      pop\n      jump\t// out\n        /* \"twitter.sol\":1310:1434  function sendMessage(address _to , string memory _content) public {... */\n    tag_55:\n        /* \"twitter.sol\":1387:1426  _sendMessage(msg.sender, _to, _content) */\n      tag_91\n        /* \"twitter.sol\":1400:1410  msg.sender */\n      caller\n        /* \"twitter.sol\":1412:1415  _to */\n      dup4\n        /* \"twitter.sol\":1417:1425  _content */\n      dup4\n        /* \"twitter.sol\":1387:1399  _sendMessage */\n      tag_86\n        /* \"twitter.sol\":1387:1426  _sendMessage(msg.sender, _to, _content) */\n      jump\t// in\n    tag_91:\n        /* \"twitter.sol\":1310:1434  function sendMessage(address _to , string memory _content) public {... */\n      pop\n      pop\n      jump\t// out\n        /* \"twitter.sol\":379:413  mapping(uint=>Tweet) public tweets */\n    tag_59:\n      mstore(0x20, 0x00)\n      dup1\n      0x00\n      mstore\n      keccak256(0x00, 0x40)\n      0x00\n      swap2\n      pop\n      swap1\n      pop\n      dup1\n      0x00\n      add\n      sload\n      swap1\n      dup1\n      0x01\n      add\n      0x00\n      swap1\n      sload\n      swap1\n      0x0100\n      exp\n      swap1\n      div\n      0xffffffffffffffffffffffffffffffffffffffff\n      and\n      swap1\n      dup1\n      0x02\n      add\n      dup1\n      sload\n      tag_92\n      swap1\n      tag_72\n      jump\t// in\n    tag_92:\n      dup1\n      0x1f\n      add\n      0x20\n      dup1\n      swap2\n      div\n      mul\n      0x20\n      add\n      mload(0x40)\n      swap1\n      dup2\n      add\n      0x40\n      mstore\n      dup1\n      swap3\n      swap2\n      swap1\n      dup2\n      dup2\n      mstore\n      0x20\n      add\n      dup3\n      dup1\n      sload\n      tag_93\n      swap1\n      tag_72\n      jump\t// in\n    tag_93:\n      dup1\n      iszero\n      tag_94\n      jumpi\n      dup1\n      0x1f\n      lt\n      tag_95\n      jumpi\n      0x0100\n      dup1\n      dup4\n      sload\n      div\n      mul\n      dup4\n      mstore\n      swap2\n      0x20\n      add\n      swap2\n      jump(tag_94)\n    tag_95:\n      dup3\n      add\n      swap2\n      swap1\n      0x00\n      mstore\n      keccak256(0x00, 0x20)\n      swap1\n    tag_96:\n      dup2\n      sload\n      dup2\n      mstore\n      swap1\n      0x01\n      add\n      swap1\n      0x20\n      add\n      dup1\n      dup4\n      gt\n      tag_96\n      jumpi\n      dup3\n      swap1\n      sub\n      0x1f\n      and\n      dup3\n      add\n      swap2\n    tag_94:\n      pop\n      pop\n      pop\n      pop\n      pop\n      swap1\n      dup1\n      0x03\n      add\n      sload\n      swap1\n      pop\n      dup5\n      jump\t// out\n        /* \"twitter.sol\":1095:1190  function tweet(string memory _content) public {... */\n    tag_65:\n        /* \"twitter.sol\":1152:1180  _tweet(msg.sender, _content) */\n      tag_98\n        /* \"twitter.sol\":1159:1169  msg.sender */\n      caller\n        /* \"twitter.sol\":1171:1179  _content */\n      dup3\n        /* \"twitter.sol\":1152:1158  _tweet */\n      tag_89\n        /* \"twitter.sol\":1152:1180  _tweet(msg.sender, _content) */\n      jump\t// in\n    tag_98:\n        /* \"twitter.sol\":1095:1190  function tweet(string memory _content) public {... */\n      pop\n      jump\t// out\n        /* \"twitter.sol\":1693:1792  function allow(address _operator) public {... */\n    tag_68:\n        /* \"twitter.sol\":1780:1784  true */\n      0x01\n        /* \"twitter.sol\":1745:1754  operators */\n      0x03\n        /* \"twitter.sol\":1745:1766  operators[msg.sender] */\n      0x00\n        /* \"twitter.sol\":1755:1765  msg.sender */\n      caller\n        /* \"twitter.sol\":1745:1766  operators[msg.sender] */\n      0xffffffffffffffffffffffffffffffffffffffff\n      and\n      0xffffffffffffffffffffffffffffffffffffffff\n      and\n      dup2\n      mstore\n      0x20\n      add\n      swap1\n      dup2\n      mstore\n      0x20\n      add\n      0x00\n      keccak256\n        /* \"twitter.sol\":1745:1777  operators[msg.sender][_operator] */\n      0x00\n        /* \"twitter.sol\":1767:1776  _operator */\n      dup4\n        /* \"twitter.sol\":1745:1777  operators[msg.sender][_operator] */\n      0xffffffffffffffffffffffffffffffffffffffff\n      and\n      0xffffffffffffffffffffffffffffffffffffffff\n      and\n      dup2\n      mstore\n      0x20\n      add\n      swap1\n      dup2\n      mstore\n      0x20\n      add\n      0x00\n      keccak256\n      0x00\n        /* \"twitter.sol\":1745:1784  operators[msg.sender][_operator] = true */\n      0x0100\n      exp\n      dup2\n      sload\n      dup2\n      0xff\n      mul\n      not\n      and\n      swap1\n      dup4\n      iszero\n      iszero\n      mul\n      or\n      swap1\n      sstore\n      pop\n        /* \"twitter.sol\":1693:1792  function allow(address _operator) public {... */\n      pop\n      jump\t// out\n        /* \"twitter.sol\":872:1087  function _sendMessage(address _from , address _to , string memory _content) internal  {... */\n    tag_86:\n        /* \"twitter.sol\":969:982  conversations */\n      0x02\n        /* \"twitter.sol\":969:989  conversations[_from] */\n      0x00\n        /* \"twitter.sol\":983:988  _from */\n      dup5\n        /* \"twitter.sol\":969:989  conversations[_from] */\n      0xffffffffffffffffffffffffffffffffffffffff\n      and\n      0xffffffffffffffffffffffffffffffffffffffff\n      and\n      dup2\n      mstore\n      0x20\n      add\n      swap1\n      dup2\n      mstore\n      0x20\n      add\n      0x00\n      keccak256\n        /* \"twitter.sol\":995:1052  Message(nextMessageId,_content,_from,_to,block.timestamp) */\n      mload(0x40)\n      dup1\n      0xa0\n      add\n      0x40\n      mstore\n      dup1\n        /* \"twitter.sol\":1003:1016  nextMessageId */\n      sload(0x06)\n        /* \"twitter.sol\":995:1052  Message(nextMessageId,_content,_from,_to,block.timestamp) */\n      dup2\n      mstore\n      0x20\n      add\n        /* \"twitter.sol\":1017:1025  _content */\n      dup4\n        /* \"twitter.sol\":995:1052  Message(nextMessageId,_content,_from,_to,block.timestamp) */\n      dup2\n      mstore\n      0x20\n      add\n        /* \"twitter.sol\":1026:1031  _from */\n      dup6\n        /* \"twitter.sol\":995:1052  Message(nextMessageId,_content,_from,_to,block.timestamp) */\n      0xffffffffffffffffffffffffffffffffffffffff\n      and\n      dup2\n      mstore\n      0x20\n      add\n        /* \"twitter.sol\":1032:1035  _to */\n      dup5\n        /* \"twitter.sol\":995:1052  Message(nextMessageId,_content,_from,_to,block.timestamp) */\n      0xffffffffffffffffffffffffffffffffffffffff\n      and\n      dup2\n      mstore\n      0x20\n      add\n        /* \"twitter.sol\":1036:1051  block.timestamp */\n      timestamp\n        /* \"twitter.sol\":995:1052  Message(nextMessageId,_content,_from,_to,block.timestamp) */\n      dup2\n      mstore\n      pop\n        /* \"twitter.sol\":969:1053  conversations[_from].push(Message(nextMessageId,_content,_from,_to,block.timestamp)) */\n      swap1\n      dup1\n      0x01\n      dup2\n      sload\n      add\n      dup1\n      dup3\n      sstore\n      dup1\n      swap2\n      pop\n      pop\n      0x01\n      swap1\n      sub\n      swap1\n      0x00\n      mstore\n      keccak256(0x00, 0x20)\n      swap1\n      0x05\n      mul\n      add\n      0x00\n      swap1\n      swap2\n      swap1\n      swap2\n      swap1\n      swap2\n      pop\n      0x00\n      dup3\n      add\n      mload\n      dup2\n      0x00\n      add\n      sstore\n      0x20\n      dup3\n      add\n      mload\n      dup2\n      0x01\n      add\n      swap1\n      dup2\n      tag_102\n      swap2\n      swap1\n      tag_103\n      jump\t// in\n    tag_102:\n      pop\n      0x40\n      dup3\n      add\n      mload\n      dup2\n      0x02\n      add\n      exp(0x0100, 0x00)\n      dup2\n      sload\n      dup2\n      0xffffffffffffffffffffffffffffffffffffffff\n      mul\n      not\n      and\n      swap1\n      dup4\n      0xffffffffffffffffffffffffffffffffffffffff\n      and\n      mul\n      or\n      swap1\n      sstore\n      pop\n      0x60\n      dup3\n      add\n      mload\n      dup2\n      0x03\n      add\n      exp(0x0100, 0x00)\n      dup2\n      sload\n      dup2\n      0xffffffffffffffffffffffffffffffffffffffff\n      mul\n      not\n      and\n      swap1\n      dup4\n      0xffffffffffffffffffffffffffffffffffffffff\n      and\n      mul\n      or\n      swap1\n      sstore\n      pop\n      0x80\n      dup3\n      add\n      mload\n      dup2\n      0x04\n      add\n      sstore\n      pop\n      pop\n        /* \"twitter.sol\":1064:1077  nextMessageId */\n      0x06\n      0x00\n        /* \"twitter.sol\":1064:1079  nextMessageId++ */\n      dup2\n      sload\n      dup1\n      swap3\n      swap2\n      swap1\n      tag_104\n      swap1\n      tag_105\n      jump\t// in\n    tag_104:\n      swap2\n      swap1\n      pop\n      sstore\n      pop\n        /* \"twitter.sol\":872:1087  function _sendMessage(address _from , address _to , string memory _content) internal  {... */\n      pop\n      pop\n      pop\n      jump\t// out\n        /* \"twitter.sol\":692:866  function _tweet(address _from , string memory _content) internal  {... */\n    tag_89:\n        /* \"twitter.sol\":786:830  Tweet(nextId,_from,_content,block.timestamp) */\n      mload(0x40)\n      dup1\n      0x80\n      add\n      0x40\n      mstore\n      dup1\n        /* \"twitter.sol\":792:798  nextId */\n      sload(0x05)\n        /* \"twitter.sol\":786:830  Tweet(nextId,_from,_content,block.timestamp) */\n      dup2\n      mstore\n      0x20\n      add\n        /* \"twitter.sol\":799:804  _from */\n      dup4\n        /* \"twitter.sol\":786:830  Tweet(nextId,_from,_content,block.timestamp) */\n      0xffffffffffffffffffffffffffffffffffffffff\n      and\n      dup2\n      mstore\n      0x20\n      add\n        /* \"twitter.sol\":805:813  _content */\n      dup3\n        /* \"twitter.sol\":786:830  Tweet(nextId,_from,_content,block.timestamp) */\n      dup2\n      mstore\n      0x20\n      add\n        /* \"twitter.sol\":814:829  block.timestamp */\n      timestamp\n        /* \"twitter.sol\":786:830  Tweet(nextId,_from,_content,block.timestamp) */\n      dup2\n      mstore\n      pop\n        /* \"twitter.sol\":769:775  tweets */\n      0x00\n        /* \"twitter.sol\":769:783  tweets[nextId] */\n      dup1\n        /* \"twitter.sol\":776:782  nextId */\n      sload(0x05)\n        /* \"twitter.sol\":769:783  tweets[nextId] */\n      dup2\n      mstore\n      0x20\n      add\n      swap1\n      dup2\n      mstore\n      0x20\n      add\n      0x00\n      keccak256\n        /* \"twitter.sol\":769:830  tweets[nextId] = Tweet(nextId,_from,_content,block.timestamp) */\n      0x00\n      dup3\n      add\n      mload\n      dup2\n      0x00\n      add\n      sstore\n      0x20\n      dup3\n      add\n      mload\n      dup2\n      0x01\n      add\n      exp(0x0100, 0x00)\n      dup2\n      sload\n      dup2\n      0xffffffffffffffffffffffffffffffffffffffff\n      mul\n      not\n      and\n      swap1\n      dup4\n      0xffffffffffffffffffffffffffffffffffffffff\n      and\n      mul\n      or\n      swap1\n      sstore\n      pop\n      0x40\n      dup3\n      add\n      mload\n      dup2\n      0x02\n      add\n      swap1\n      dup2\n      tag_107\n      swap2\n      swap1\n      tag_103\n      jump\t// in\n    tag_107:\n      pop\n      0x60\n      dup3\n      add\n      mload\n      dup2\n      0x03\n      add\n      sstore\n      swap1\n      pop\n      pop\n        /* \"twitter.sol\":841:847  nextId */\n      0x05\n      0x00\n        /* \"twitter.sol\":841:849  nextId++ */\n      dup2\n      sload\n      dup1\n      swap3\n      swap2\n      swap1\n      tag_108\n      swap1\n      tag_105\n      jump\t// in\n    tag_108:\n      swap2\n      swap1\n      pop\n      sstore\n      pop\n        /* \"twitter.sol\":692:866  function _tweet(address _from , string memory _content) internal  {... */\n      pop\n      pop\n      jump\t// out\n        /* \"#utility.yul\":7:82   */\n    tag_109:\n        /* \"#utility.yul\":40:46   */\n      0x00\n        /* \"#utility.yul\":73:75   */\n      0x40\n        /* \"#utility.yul\":67:76   */\n      mload\n        /* \"#utility.yul\":57:76   */\n      swap1\n      pop\n        /* \"#utility.yul\":7:82   */\n      swap1\n      jump\t// out\n        /* \"#utility.yul\":88:205   */\n    tag_110:\n        /* \"#utility.yul\":197:198   */\n      0x00\n        /* \"#utility.yul\":194:195   */\n      dup1\n        /* \"#utility.yul\":187:199   */\n      revert\n        /* \"#utility.yul\":211:328   */\n    tag_111:\n        /* \"#utility.yul\":320:321   */\n      0x00\n        /* \"#utility.yul\":317:318   */\n      dup1\n        /* \"#utility.yul\":310:322   */\n      revert\n        /* \"#utility.yul\":334:460   */\n    tag_112:\n        /* \"#utility.yul\":371:378   */\n      0x00\n        /* \"#utility.yul\":411:453   */\n      0xffffffffffffffffffffffffffffffffffffffff\n        /* \"#utility.yul\":404:409   */\n      dup3\n        /* \"#utility.yul\":400:454   */\n      and\n        /* \"#utility.yul\":389:454   */\n      swap1\n      pop\n        /* \"#utility.yul\":334:460   */\n      swap2\n      swap1\n      pop\n      jump\t// out\n        /* \"#utility.yul\":466:562   */\n    tag_113:\n        /* \"#utility.yul\":503:510   */\n      0x00\n        /* \"#utility.yul\":532:556   */\n      tag_160\n        /* \"#utility.yul\":550:555   */\n      dup3\n        /* \"#utility.yul\":532:556   */\n      tag_112\n      jump\t// in\n    tag_160:\n        /* \"#utility.yul\":521:556   */\n      swap1\n      pop\n        /* \"#utility.yul\":466:562   */\n      swap2\n      swap1\n      pop\n      jump\t// out\n        /* \"#utility.yul\":568:690   */\n    tag_114:\n        /* \"#utility.yul\":641:665   */\n      tag_162\n        /* \"#utility.yul\":659:664   */\n      dup2\n        /* \"#utility.yul\":641:665   */\n      tag_113\n      jump\t// in\n    tag_162:\n        /* \"#utility.yul\":634:639   */\n      dup2\n        /* \"#utility.yul\":631:666   */\n      eq\n        /* \"#utility.yul\":621:684   */\n      tag_163\n      jumpi\n        /* \"#utility.yul\":680:681   */\n      0x00\n        /* \"#utility.yul\":677:678   */\n      dup1\n        /* \"#utility.yul\":670:682   */\n      revert\n        /* \"#utility.yul\":621:684   */\n    tag_163:\n        /* \"#utility.yul\":568:690   */\n      pop\n      jump\t// out\n        /* \"#utility.yul\":696:835   */\n    tag_115:\n        /* \"#utility.yul\":742:747   */\n      0x00\n        /* \"#utility.yul\":780:786   */\n      dup2\n        /* \"#utility.yul\":767:787   */\n      calldataload\n        /* \"#utility.yul\":758:787   */\n      swap1\n      pop\n        /* \"#utility.yul\":796:829   */\n      tag_165\n        /* \"#utility.yul\":823:828   */\n      dup2\n        /* \"#utility.yul\":796:829   */\n      tag_114\n      jump\t// in\n    tag_165:\n        /* \"#utility.yul\":696:835   */\n      swap3\n      swap2\n      pop\n      pop\n      jump\t// out\n        /* \"#utility.yul\":841:1315   */\n    tag_18:\n        /* \"#utility.yul\":909:915   */\n      0x00\n        /* \"#utility.yul\":917:923   */\n      dup1\n        /* \"#utility.yul\":966:968   */\n      0x40\n        /* \"#utility.yul\":954:963   */\n      dup4\n        /* \"#utility.yul\":945:952   */\n      dup6\n        /* \"#utility.yul\":941:964   */\n      sub\n        /* \"#utility.yul\":937:969   */\n      slt\n        /* \"#utility.yul\":934:1053   */\n      iszero\n      tag_167\n      jumpi\n        /* \"#utility.yul\":972:1051   */\n      tag_168\n      tag_110\n      jump\t// in\n    tag_168:\n        /* \"#utility.yul\":934:1053   */\n    tag_167:\n        /* \"#utility.yul\":1092:1093   */\n      0x00\n        /* \"#utility.yul\":1117:1170   */\n      tag_169\n        /* \"#utility.yul\":1162:1169   */\n      dup6\n        /* \"#utility.yul\":1153:1159   */\n      dup3\n        /* \"#utility.yul\":1142:1151   */\n      dup7\n        /* \"#utility.yul\":1138:1160   */\n      add\n        /* \"#utility.yul\":1117:1170   */\n      tag_115\n      jump\t// in\n    tag_169:\n        /* \"#utility.yul\":1107:1170   */\n      swap3\n      pop\n        /* \"#utility.yul\":1063:1180   */\n      pop\n        /* \"#utility.yul\":1219:1221   */\n      0x20\n        /* \"#utility.yul\":1245:1298   */\n      tag_170\n        /* \"#utility.yul\":1290:1297   */\n      dup6\n        /* \"#utility.yul\":1281:1287   */\n      dup3\n        /* \"#utility.yul\":1270:1279   */\n      dup7\n        /* \"#utility.yul\":1266:1288   */\n      add\n        /* \"#utility.yul\":1245:1298   */\n      tag_115\n      jump\t// in\n    tag_170:\n        /* \"#utility.yul\":1235:1298   */\n      swap2\n      pop\n        /* \"#utility.yul\":1190:1308   */\n      pop\n        /* \"#utility.yul\":841:1315   */\n      swap3\n      pop\n      swap3\n      swap1\n      pop\n      jump\t// out\n        /* \"#utility.yul\":1321:1411   */\n    tag_116:\n        /* \"#utility.yul\":1355:1362   */\n      0x00\n        /* \"#utility.yul\":1398:1403   */\n      dup2\n        /* \"#utility.yul\":1391:1404   */\n      iszero\n        /* \"#utility.yul\":1384:1405   */\n      iszero\n        /* \"#utility.yul\":1373:1405   */\n      swap1\n      pop\n        /* \"#utility.yul\":1321:1411   */\n      swap2\n      swap1\n      pop\n      jump\t// out\n        /* \"#utility.yul\":1417:1526   */\n    tag_117:\n        /* \"#utility.yul\":1498:1519   */\n      tag_173\n        /* \"#utility.yul\":1513:1518   */\n      dup2\n        /* \"#utility.yul\":1498:1519   */\n      tag_116\n      jump\t// in\n    tag_173:\n        /* \"#utility.yul\":1493:1496   */\n      dup3\n        /* \"#utility.yul\":1486:1520   */\n      mstore\n        /* \"#utility.yul\":1417:1526   */\n      pop\n      pop\n      jump\t// out\n        /* \"#utility.yul\":1532:1742   */\n    tag_21:\n        /* \"#utility.yul\":1619:1623   */\n      0x00\n        /* \"#utility.yul\":1657:1659   */\n      0x20\n        /* \"#utility.yul\":1646:1655   */\n      dup3\n        /* \"#utility.yul\":1642:1660   */\n      add\n        /* \"#utility.yul\":1634:1660   */\n      swap1\n      pop\n        /* \"#utility.yul\":1670:1735   */\n      tag_175\n        /* \"#utility.yul\":1732:1733   */\n      0x00\n        /* \"#utility.yul\":1721:1730   */\n      dup4\n        /* \"#utility.yul\":1717:1734   */\n      add\n        /* \"#utility.yul\":1708:1714   */\n      dup5\n        /* \"#utility.yul\":1670:1735   */\n      tag_117\n      jump\t// in\n    tag_175:\n        /* \"#utility.yul\":1532:1742   */\n      swap3\n      swap2\n      pop\n      pop\n      jump\t// out\n        /* \"#utility.yul\":1748:1825   */\n    tag_118:\n        /* \"#utility.yul\":1785:1792   */\n      0x00\n        /* \"#utility.yul\":1814:1819   */\n      dup2\n        /* \"#utility.yul\":1803:1819   */\n      swap1\n      pop\n        /* \"#utility.yul\":1748:1825   */\n      swap2\n      swap1\n      pop\n      jump\t// out\n        /* \"#utility.yul\":1831:1953   */\n    tag_119:\n        /* \"#utility.yul\":1904:1928   */\n      tag_178\n        /* \"#utility.yul\":1922:1927   */\n      dup2\n        /* \"#utility.yul\":1904:1928   */\n      tag_118\n      jump\t// in\n    tag_178:\n        /* \"#utility.yul\":1897:1902   */\n      dup2\n        /* \"#utility.yul\":1894:1929   */\n      eq\n        /* \"#utility.yul\":1884:1947   */\n      tag_179\n      jumpi\n        /* \"#utility.yul\":1943:1944   */\n      0x00\n        /* \"#utility.yul\":1940:1941   */\n      dup1\n        /* \"#utility.yul\":1933:1945   */\n      revert\n        /* \"#utility.yul\":1884:1947   */\n    tag_179:\n        /* \"#utility.yul\":1831:1953   */\n      pop\n      jump\t// out\n        /* \"#utility.yul\":1959:2098   */\n    tag_120:\n        /* \"#utility.yul\":2005:2010   */\n      0x00\n        /* \"#utility.yul\":2043:2049   */\n      dup2\n        /* \"#utility.yul\":2030:2050   */\n      calldataload\n        /* \"#utility.yul\":2021:2050   */\n      swap1\n      pop\n        /* \"#utility.yul\":2059:2092   */\n      tag_181\n        /* \"#utility.yul\":2086:2091   */\n      dup2\n        /* \"#utility.yul\":2059:2092   */\n      tag_119\n      jump\t// in\n    tag_181:\n        /* \"#utility.yul\":1959:2098   */\n      swap3\n      swap2\n      pop\n      pop\n      jump\t// out\n        /* \"#utility.yul\":2104:2578   */\n    tag_24:\n        /* \"#utility.yul\":2172:2178   */\n      0x00\n        /* \"#utility.yul\":2180:2186   */\n      dup1\n        /* \"#utility.yul\":2229:2231   */\n      0x40\n        /* \"#utility.yul\":2217:2226   */\n      dup4\n        /* \"#utility.yul\":2208:2215   */\n      dup6\n        /* \"#utility.yul\":2204:2227   */\n      sub\n        /* \"#utility.yul\":2200:2232   */\n      slt\n        /* \"#utility.yul\":2197:2316   */\n      iszero\n      tag_183\n      jumpi\n        /* \"#utility.yul\":2235:2314   */\n      tag_184\n      tag_110\n      jump\t// in\n    tag_184:\n        /* \"#utility.yul\":2197:2316   */\n    tag_183:\n        /* \"#utility.yul\":2355:2356   */\n      0x00\n        /* \"#utility.yul\":2380:2433   */\n      tag_185\n        /* \"#utility.yul\":2425:2432   */\n      dup6\n        /* \"#utility.yul\":2416:2422   */\n      dup3\n        /* \"#utility.yul\":2405:2414   */\n      dup7\n        /* \"#utility.yul\":2401:2423   */\n      add\n        /* \"#utility.yul\":2380:2433   */\n      tag_115\n      jump\t// in\n    tag_185:\n        /* \"#utility.yul\":2370:2433   */\n      swap3\n      pop\n        /* \"#utility.yul\":2326:2443   */\n      pop\n        /* \"#utility.yul\":2482:2484   */\n      0x20\n        /* \"#utility.yul\":2508:2561   */\n      tag_186\n        /* \"#utility.yul\":2553:2560   */\n      dup6\n        /* \"#utility.yul\":2544:2550   */\n      dup3\n        /* \"#utility.yul\":2533:2542   */\n      dup7\n        /* \"#utility.yul\":2529:2551   */\n      add\n        /* \"#utility.yul\":2508:2561   */\n      tag_120\n      jump\t// in\n    tag_186:\n        /* \"#utility.yul\":2498:2561   */\n      swap2\n      pop\n        /* \"#utility.yul\":2453:2571   */\n      pop\n        /* \"#utility.yul\":2104:2578   */\n      swap3\n      pop\n      swap3\n      swap1\n      pop\n      jump\t// out\n        /* \"#utility.yul\":2584:2702   */\n    tag_121:\n        /* \"#utility.yul\":2671:2695   */\n      tag_188\n        /* \"#utility.yul\":2689:2694   */\n      dup2\n        /* \"#utility.yul\":2671:2695   */\n      tag_118\n      jump\t// in\n    tag_188:\n        /* \"#utility.yul\":2666:2669   */\n      dup3\n        /* \"#utility.yul\":2659:2696   */\n      mstore\n        /* \"#utility.yul\":2584:2702   */\n      pop\n      pop\n      jump\t// out\n        /* \"#utility.yul\":2708:2807   */\n    tag_122:\n        /* \"#utility.yul\":2760:2766   */\n      0x00\n        /* \"#utility.yul\":2794:2799   */\n      dup2\n        /* \"#utility.yul\":2788:2800   */\n      mload\n        /* \"#utility.yul\":2778:2800   */\n      swap1\n      pop\n        /* \"#utility.yul\":2708:2807   */\n      swap2\n      swap1\n      pop\n      jump\t// out\n        /* \"#utility.yul\":2813:2982   */\n    tag_123:\n        /* \"#utility.yul\":2897:2908   */\n      0x00\n        /* \"#utility.yul\":2931:2937   */\n      dup3\n        /* \"#utility.yul\":2926:2929   */\n      dup3\n        /* \"#utility.yul\":2919:2938   */\n      mstore\n        /* \"#utility.yul\":2971:2975   */\n      0x20\n        /* \"#utility.yul\":2966:2969   */\n      dup3\n        /* \"#utility.yul\":2962:2976   */\n      add\n        /* \"#utility.yul\":2947:2976   */\n      swap1\n      pop\n        /* \"#utility.yul\":2813:2982   */\n      swap3\n      swap2\n      pop\n      pop\n      jump\t// out\n        /* \"#utility.yul\":2988:3234   */\n    tag_124:\n        /* \"#utility.yul\":3069:3070   */\n      0x00\n        /* \"#utility.yul\":3079:3192   */\n    tag_192:\n        /* \"#utility.yul\":3093:3099   */\n      dup4\n        /* \"#utility.yul\":3090:3091   */\n      dup2\n        /* \"#utility.yul\":3087:3100   */\n      lt\n        /* \"#utility.yul\":3079:3192   */\n      iszero\n      tag_194\n      jumpi\n        /* \"#utility.yul\":3178:3179   */\n      dup1\n        /* \"#utility.yul\":3173:3176   */\n      dup3\n        /* \"#utility.yul\":3169:3180   */\n      add\n        /* \"#utility.yul\":3163:3181   */\n      mload\n        /* \"#utility.yul\":3159:3160   */\n      dup2\n        /* \"#utility.yul\":3154:3157   */\n      dup5\n        /* \"#utility.yul\":3150:3161   */\n      add\n        /* \"#utility.yul\":3143:3182   */\n      mstore\n        /* \"#utility.yul\":3115:3117   */\n      0x20\n        /* \"#utility.yul\":3112:3113   */\n      dup2\n        /* \"#utility.yul\":3108:3118   */\n      add\n        /* \"#utility.yul\":3103:3118   */\n      swap1\n      pop\n        /* \"#utility.yul\":3079:3192   */\n      jump(tag_192)\n    tag_194:\n        /* \"#utility.yul\":3226:3227   */\n      0x00\n        /* \"#utility.yul\":3217:3223   */\n      dup5\n        /* \"#utility.yul\":3212:3215   */\n      dup5\n        /* \"#utility.yul\":3208:3224   */\n      add\n        /* \"#utility.yul\":3201:3228   */\n      mstore\n        /* \"#utility.yul\":3050:3234   */\n      pop\n        /* \"#utility.yul\":2988:3234   */\n      pop\n      pop\n      pop\n      jump\t// out\n        /* \"#utility.yul\":3240:3342   */\n    tag_125:\n        /* \"#utility.yul\":3281:3287   */\n      0x00\n        /* \"#utility.yul\":3332:3334   */\n      0x1f\n        /* \"#utility.yul\":3328:3335   */\n      not\n        /* \"#utility.yul\":3323:3325   */\n      0x1f\n        /* \"#utility.yul\":3316:3321   */\n      dup4\n        /* \"#utility.yul\":3312:3326   */\n      add\n        /* \"#utility.yul\":3308:3336   */\n      and\n        /* \"#utility.yul\":3298:3336   */\n      swap1\n      pop\n        /* \"#utility.yul\":3240:3342   */\n      swap2\n      swap1\n      pop\n      jump\t// out\n        /* \"#utility.yul\":3348:3725   */\n    tag_126:\n        /* \"#utility.yul\":3436:3439   */\n      0x00\n        /* \"#utility.yul\":3464:3503   */\n      tag_197\n        /* \"#utility.yul\":3497:3502   */\n      dup3\n        /* \"#utility.yul\":3464:3503   */\n      tag_122\n      jump\t// in\n    tag_197:\n        /* \"#utility.yul\":3519:3590   */\n      tag_198\n        /* \"#utility.yul\":3583:3589   */\n      dup2\n        /* \"#utility.yul\":3578:3581   */\n      dup6\n        /* \"#utility.yul\":3519:3590   */\n      tag_123\n      jump\t// in\n    tag_198:\n        /* \"#utility.yul\":3512:3590   */\n      swap4\n      pop\n        /* \"#utility.yul\":3599:3664   */\n      tag_199\n        /* \"#utility.yul\":3657:3663   */\n      dup2\n        /* \"#utility.yul\":3652:3655   */\n      dup6\n        /* \"#utility.yul\":3645:3649   */\n      0x20\n        /* \"#utility.yul\":3638:3643   */\n      dup7\n        /* \"#utility.yul\":3634:3650   */\n      add\n        /* \"#utility.yul\":3599:3664   */\n      tag_124\n      jump\t// in\n    tag_199:\n        /* \"#utility.yul\":3689:3718   */\n      tag_200\n        /* \"#utility.yul\":3711:3717   */\n      dup2\n        /* \"#utility.yul\":3689:3718   */\n      tag_125\n      jump\t// in\n    tag_200:\n        /* \"#utility.yul\":3684:3687   */\n      dup5\n        /* \"#utility.yul\":3680:3719   */\n      add\n        /* \"#utility.yul\":3673:3719   */\n      swap2\n      pop\n        /* \"#utility.yul\":3440:3725   */\n      pop\n        /* \"#utility.yul\":3348:3725   */\n      swap3\n      swap2\n      pop\n      pop\n      jump\t// out\n        /* \"#utility.yul\":3731:3849   */\n    tag_127:\n        /* \"#utility.yul\":3818:3842   */\n      tag_202\n        /* \"#utility.yul\":3836:3841   */\n      dup2\n        /* \"#utility.yul\":3818:3842   */\n      tag_113\n      jump\t// in\n    tag_202:\n        /* \"#utility.yul\":3813:3816   */\n      dup3\n        /* \"#utility.yul\":3806:3843   */\n      mstore\n        /* \"#utility.yul\":3731:3849   */\n      pop\n      pop\n      jump\t// out\n        /* \"#utility.yul\":3855:4610   */\n    tag_27:\n        /* \"#utility.yul\":4080:4084   */\n      0x00\n        /* \"#utility.yul\":4118:4121   */\n      0xa0\n        /* \"#utility.yul\":4107:4116   */\n      dup3\n        /* \"#utility.yul\":4103:4122   */\n      add\n        /* \"#utility.yul\":4095:4122   */\n      swap1\n      pop\n        /* \"#utility.yul\":4132:4203   */\n      tag_204\n        /* \"#utility.yul\":4200:4201   */\n      0x00\n        /* \"#utility.yul\":4189:4198   */\n      dup4\n        /* \"#utility.yul\":4185:4202   */\n      add\n        /* \"#utility.yul\":4176:4182   */\n      dup9\n        /* \"#utility.yul\":4132:4203   */\n      tag_121\n      jump\t// in\n    tag_204:\n        /* \"#utility.yul\":4250:4259   */\n      dup2\n        /* \"#utility.yul\":4244:4248   */\n      dup2\n        /* \"#utility.yul\":4240:4260   */\n      sub\n        /* \"#utility.yul\":4235:4237   */\n      0x20\n        /* \"#utility.yul\":4224:4233   */\n      dup4\n        /* \"#utility.yul\":4220:4238   */\n      add\n        /* \"#utility.yul\":4213:4261   */\n      mstore\n        /* \"#utility.yul\":4278:4356   */\n      tag_205\n        /* \"#utility.yul\":4351:4355   */\n      dup2\n        /* \"#utility.yul\":4342:4348   */\n      dup8\n        /* \"#utility.yul\":4278:4356   */\n      tag_126\n      jump\t// in\n    tag_205:\n        /* \"#utility.yul\":4270:4356   */\n      swap1\n      pop\n        /* \"#utility.yul\":4366:4438   */\n      tag_206\n        /* \"#utility.yul\":4434:4436   */\n      0x40\n        /* \"#utility.yul\":4423:4432   */\n      dup4\n        /* \"#utility.yul\":4419:4437   */\n      add\n        /* \"#utility.yul\":4410:4416   */\n      dup7\n        /* \"#utility.yul\":4366:4438   */\n      tag_127\n      jump\t// in\n    tag_206:\n        /* \"#utility.yul\":4448:4520   */\n      tag_207\n        /* \"#utility.yul\":4516:4518   */\n      0x60\n        /* \"#utility.yul\":4505:4514   */\n      dup4\n        /* \"#utility.yul\":4501:4519   */\n      add\n        /* \"#utility.yul\":4492:4498   */\n      dup6\n        /* \"#utility.yul\":4448:4520   */\n      tag_127\n      jump\t// in\n    tag_207:\n        /* \"#utility.yul\":4530:4603   */\n      tag_208\n        /* \"#utility.yul\":4598:4601   */\n      0x80\n        /* \"#utility.yul\":4587:4596   */\n      dup4\n        /* \"#utility.yul\":4583:4602   */\n      add\n        /* \"#utility.yul\":4574:4580   */\n      dup5\n        /* \"#utility.yul\":4530:4603   */\n      tag_121\n      jump\t// in\n    tag_208:\n        /* \"#utility.yul\":3855:4610   */\n      swap7\n      swap6\n      pop\n      pop\n      pop\n      pop\n      pop\n      pop\n      jump\t// out\n        /* \"#utility.yul\":4616:4945   */\n    tag_30:\n        /* \"#utility.yul\":4675:4681   */\n      0x00\n        /* \"#utility.yul\":4724:4726   */\n      0x20\n        /* \"#utility.yul\":4712:4721   */\n      dup3\n        /* \"#utility.yul\":4703:4710   */\n      dup5\n        /* \"#utility.yul\":4699:4722   */\n      sub\n        /* \"#utility.yul\":4695:4727   */\n      slt\n        /* \"#utility.yul\":4692:4811   */\n      iszero\n      tag_210\n      jumpi\n        /* \"#utility.yul\":4730:4809   */\n      tag_211\n      tag_110\n      jump\t// in\n    tag_211:\n        /* \"#utility.yul\":4692:4811   */\n    tag_210:\n        /* \"#utility.yul\":4850:4851   */\n      0x00\n        /* \"#utility.yul\":4875:4928   */\n      tag_212\n        /* \"#utility.yul\":4920:4927   */\n      dup5\n        /* \"#utility.yul\":4911:4917   */\n      dup3\n        /* \"#utility.yul\":4900:4909   */\n      dup6\n        /* \"#utility.yul\":4896:4918   */\n      add\n        /* \"#utility.yul\":4875:4928   */\n      tag_115\n      jump\t// in\n    tag_212:\n        /* \"#utility.yul\":4865:4928   */\n      swap2\n      pop\n        /* \"#utility.yul\":4821:4938   */\n      pop\n        /* \"#utility.yul\":4616:4945   */\n      swap3\n      swap2\n      pop\n      pop\n      jump\t// out\n        /* \"#utility.yul\":4951:5173   */\n    tag_36:\n        /* \"#utility.yul\":5044:5048   */\n      0x00\n        /* \"#utility.yul\":5082:5084   */\n      0x20\n        /* \"#utility.yul\":5071:5080   */\n      dup3\n        /* \"#utility.yul\":5067:5085   */\n      add\n        /* \"#utility.yul\":5059:5085   */\n      swap1\n      pop\n        /* \"#utility.yul\":5095:5166   */\n      tag_214\n        /* \"#utility.yul\":5163:5164   */\n      0x00\n        /* \"#utility.yul\":5152:5161   */\n      dup4\n        /* \"#utility.yul\":5148:5165   */\n      add\n        /* \"#utility.yul\":5139:5145   */\n      dup5\n        /* \"#utility.yul\":5095:5166   */\n      tag_127\n      jump\t// in\n    tag_214:\n        /* \"#utility.yul\":4951:5173   */\n      swap3\n      swap2\n      pop\n      pop\n      jump\t// out\n        /* \"#utility.yul\":5179:5401   */\n    tag_44:\n        /* \"#utility.yul\":5272:5276   */\n      0x00\n        /* \"#utility.yul\":5310:5312   */\n      0x20\n        /* \"#utility.yul\":5299:5308   */\n      dup3\n        /* \"#utility.yul\":5295:5313   */\n      add\n        /* \"#utility.yul\":5287:5313   */\n      swap1\n      pop\n        /* \"#utility.yul\":5323:5394   */\n      tag_216\n        /* \"#utility.yul\":5391:5392   */\n      0x00\n        /* \"#utility.yul\":5380:5389   */\n      dup4\n        /* \"#utility.yul\":5376:5393   */\n      add\n        /* \"#utility.yul\":5367:5373   */\n      dup5\n        /* \"#utility.yul\":5323:5394   */\n      tag_121\n      jump\t// in\n    tag_216:\n        /* \"#utility.yul\":5179:5401   */\n      swap3\n      swap2\n      pop\n      pop\n      jump\t// out\n        /* \"#utility.yul\":5407:5524   */\n    tag_128:\n        /* \"#utility.yul\":5516:5517   */\n      0x00\n        /* \"#utility.yul\":5513:5514   */\n      dup1\n        /* \"#utility.yul\":5506:5518   */\n      revert\n        /* \"#utility.yul\":5530:5647   */\n    tag_129:\n        /* \"#utility.yul\":5639:5640   */\n      0x00\n        /* \"#utility.yul\":5636:5637   */\n      dup1\n        /* \"#utility.yul\":5629:5641   */\n      revert\n        /* \"#utility.yul\":5653:5833   */\n    tag_130:\n        /* \"#utility.yul\":5701:5778   */\n      0x4e487b7100000000000000000000000000000000000000000000000000000000\n        /* \"#utility.yul\":5698:5699   */\n      0x00\n        /* \"#utility.yul\":5691:5779   */\n      mstore\n        /* \"#utility.yul\":5798:5802   */\n      0x41\n        /* \"#utility.yul\":5795:5796   */\n      0x04\n        /* \"#utility.yul\":5788:5803   */\n      mstore\n        /* \"#utility.yul\":5822:5826   */\n      0x24\n        /* \"#utility.yul\":5819:5820   */\n      0x00\n        /* \"#utility.yul\":5812:5827   */\n      revert\n        /* \"#utility.yul\":5839:6120   */\n    tag_131:\n        /* \"#utility.yul\":5922:5949   */\n      tag_221\n        /* \"#utility.yul\":5944:5948   */\n      dup3\n        /* \"#utility.yul\":5922:5949   */\n      tag_125\n      jump\t// in\n    tag_221:\n        /* \"#utility.yul\":5914:5920   */\n      dup2\n        /* \"#utility.yul\":5910:5950   */\n      add\n        /* \"#utility.yul\":6052:6058   */\n      dup2\n        /* \"#utility.yul\":6040:6050   */\n      dup2\n        /* \"#utility.yul\":6037:6059   */\n      lt\n        /* \"#utility.yul\":6016:6034   */\n      0xffffffffffffffff\n        /* \"#utility.yul\":6004:6014   */\n      dup3\n        /* \"#utility.yul\":6001:6035   */\n      gt\n        /* \"#utility.yul\":5998:6060   */\n      or\n        /* \"#utility.yul\":5995:6083   */\n      iszero\n      tag_222\n      jumpi\n        /* \"#utility.yul\":6063:6081   */\n      tag_223\n      tag_130\n      jump\t// in\n    tag_223:\n        /* \"#utility.yul\":5995:6083   */\n    tag_222:\n        /* \"#utility.yul\":6103:6113   */\n      dup1\n        /* \"#utility.yul\":6099:6101   */\n      0x40\n        /* \"#utility.yul\":6092:6114   */\n      mstore\n        /* \"#utility.yul\":5882:6120   */\n      pop\n        /* \"#utility.yul\":5839:6120   */\n      pop\n      pop\n      jump\t// out\n        /* \"#utility.yul\":6126:6255   */\n    tag_132:\n        /* \"#utility.yul\":6160:6166   */\n      0x00\n        /* \"#utility.yul\":6187:6207   */\n      tag_225\n      tag_109\n      jump\t// in\n    tag_225:\n        /* \"#utility.yul\":6177:6207   */\n      swap1\n      pop\n        /* \"#utility.yul\":6216:6249   */\n      tag_226\n        /* \"#utility.yul\":6244:6248   */\n      dup3\n        /* \"#utility.yul\":6236:6242   */\n      dup3\n        /* \"#utility.yul\":6216:6249   */\n      tag_131\n      jump\t// in\n    tag_226:\n        /* \"#utility.yul\":6126:6255   */\n      swap2\n      swap1\n      pop\n      jump\t// out\n        /* \"#utility.yul\":6261:6569   */\n    tag_133:\n        /* \"#utility.yul\":6323:6327   */\n      0x00\n        /* \"#utility.yul\":6413:6431   */\n      0xffffffffffffffff\n        /* \"#utility.yul\":6405:6411   */\n      dup3\n        /* \"#utility.yul\":6402:6432   */\n      gt\n        /* \"#utility.yul\":6399:6455   */\n      iszero\n      tag_228\n      jumpi\n        /* \"#utility.yul\":6435:6453   */\n      tag_229\n      tag_130\n      jump\t// in\n    tag_229:\n        /* \"#utility.yul\":6399:6455   */\n    tag_228:\n        /* \"#utility.yul\":6473:6502   */\n      tag_230\n        /* \"#utility.yul\":6495:6501   */\n      dup3\n        /* \"#utility.yul\":6473:6502   */\n      tag_125\n      jump\t// in\n    tag_230:\n        /* \"#utility.yul\":6465:6502   */\n      swap1\n      pop\n        /* \"#utility.yul\":6557:6561   */\n      0x20\n        /* \"#utility.yul\":6551:6555   */\n      dup2\n        /* \"#utility.yul\":6547:6562   */\n      add\n        /* \"#utility.yul\":6539:6562   */\n      swap1\n      pop\n        /* \"#utility.yul\":6261:6569   */\n      swap2\n      swap1\n      pop\n      jump\t// out\n        /* \"#utility.yul\":6575:6721   */\n    tag_134:\n        /* \"#utility.yul\":6672:6678   */\n      dup3\n        /* \"#utility.yul\":6667:6670   */\n      dup2\n        /* \"#utility.yul\":6662:6665   */\n      dup4\n        /* \"#utility.yul\":6649:6679   */\n      calldatacopy\n        /* \"#utility.yul\":6713:6714   */\n      0x00\n        /* \"#utility.yul\":6704:6710   */\n      dup4\n        /* \"#utility.yul\":6699:6702   */\n      dup4\n        /* \"#utility.yul\":6695:6711   */\n      add\n        /* \"#utility.yul\":6688:6715   */\n      mstore\n        /* \"#utility.yul\":6575:6721   */\n      pop\n      pop\n      pop\n      jump\t// out\n        /* \"#utility.yul\":6727:7152   */\n    tag_135:\n        /* \"#utility.yul\":6805:6810   */\n      0x00\n        /* \"#utility.yul\":6830:6896   */\n      tag_233\n        /* \"#utility.yul\":6846:6895   */\n      tag_234\n        /* \"#utility.yul\":6888:6894   */\n      dup5\n        /* \"#utility.yul\":6846:6895   */\n      tag_133\n      jump\t// in\n    tag_234:\n        /* \"#utility.yul\":6830:6896   */\n      tag_132\n      jump\t// in\n    tag_233:\n        /* \"#utility.yul\":6821:6896   */\n      swap1\n      pop\n        /* \"#utility.yul\":6919:6925   */\n      dup3\n        /* \"#utility.yul\":6912:6917   */\n      dup2\n        /* \"#utility.yul\":6905:6926   */\n      mstore\n        /* \"#utility.yul\":6957:6961   */\n      0x20\n        /* \"#utility.yul\":6950:6955   */\n      dup2\n        /* \"#utility.yul\":6946:6962   */\n      add\n        /* \"#utility.yul\":6995:6998   */\n      dup5\n        /* \"#utility.yul\":6986:6992   */\n      dup5\n        /* \"#utility.yul\":6981:6984   */\n      dup5\n        /* \"#utility.yul\":6977:6993   */\n      add\n        /* \"#utility.yul\":6974:6999   */\n      gt\n        /* \"#utility.yul\":6971:7083   */\n      iszero\n      tag_235\n      jumpi\n        /* \"#utility.yul\":7002:7081   */\n      tag_236\n      tag_129\n      jump\t// in\n    tag_236:\n        /* \"#utility.yul\":6971:7083   */\n    tag_235:\n        /* \"#utility.yul\":7092:7146   */\n      tag_237\n        /* \"#utility.yul\":7139:7145   */\n      dup5\n        /* \"#utility.yul\":7134:7137   */\n      dup3\n        /* \"#utility.yul\":7129:7132   */\n      dup6\n        /* \"#utility.yul\":7092:7146   */\n      tag_134\n      jump\t// in\n    tag_237:\n        /* \"#utility.yul\":6811:7152   */\n      pop\n        /* \"#utility.yul\":6727:7152   */\n      swap4\n      swap3\n      pop\n      pop\n      pop\n      jump\t// out\n        /* \"#utility.yul\":7172:7512   */\n    tag_136:\n        /* \"#utility.yul\":7228:7233   */\n      0x00\n        /* \"#utility.yul\":7277:7280   */\n      dup3\n        /* \"#utility.yul\":7270:7274   */\n      0x1f\n        /* \"#utility.yul\":7262:7268   */\n      dup4\n        /* \"#utility.yul\":7258:7275   */\n      add\n        /* \"#utility.yul\":7254:7281   */\n      slt\n        /* \"#utility.yul\":7244:7366   */\n      tag_239\n      jumpi\n        /* \"#utility.yul\":7285:7364   */\n      tag_240\n      tag_128\n      jump\t// in\n    tag_240:\n        /* \"#utility.yul\":7244:7366   */\n    tag_239:\n        /* \"#utility.yul\":7402:7408   */\n      dup2\n        /* \"#utility.yul\":7389:7409   */\n      calldataload\n        /* \"#utility.yul\":7427:7506   */\n      tag_241\n        /* \"#utility.yul\":7502:7505   */\n      dup5\n        /* \"#utility.yul\":7494:7500   */\n      dup3\n        /* \"#utility.yul\":7487:7491   */\n      0x20\n        /* \"#utility.yul\":7479:7485   */\n      dup7\n        /* \"#utility.yul\":7475:7492   */\n      add\n        /* \"#utility.yul\":7427:7506   */\n      tag_135\n      jump\t// in\n    tag_241:\n        /* \"#utility.yul\":7418:7506   */\n      swap2\n      pop\n        /* \"#utility.yul\":7234:7512   */\n      pop\n        /* \"#utility.yul\":7172:7512   */\n      swap3\n      swap2\n      pop\n      pop\n      jump\t// out\n        /* \"#utility.yul\":7518:8317   */\n    tag_47:\n        /* \"#utility.yul\":7605:7611   */\n      0x00\n        /* \"#utility.yul\":7613:7619   */\n      dup1\n        /* \"#utility.yul\":7621:7627   */\n      0x00\n        /* \"#utility.yul\":7670:7672   */\n      0x60\n        /* \"#utility.yul\":7658:7667   */\n      dup5\n        /* \"#utility.yul\":7649:7656   */\n      dup7\n        /* \"#utility.yul\":7645:7668   */\n      sub\n        /* \"#utility.yul\":7641:7673   */\n      slt\n        /* \"#utility.yul\":7638:7757   */\n      iszero\n      tag_243\n      jumpi\n        /* \"#utility.yul\":7676:7755   */\n      tag_244\n      tag_110\n      jump\t// in\n    tag_244:\n        /* \"#utility.yul\":7638:7757   */\n    tag_243:\n        /* \"#utility.yul\":7796:7797   */\n      0x00\n        /* \"#utility.yul\":7821:7874   */\n      tag_245\n        /* \"#utility.yul\":7866:7873   */\n      dup7\n        /* \"#utility.yul\":7857:7863   */\n      dup3\n        /* \"#utility.yul\":7846:7855   */\n      dup8\n        /* \"#utility.yul\":7842:7864   */\n      add\n        /* \"#utility.yul\":7821:7874   */\n      tag_115\n      jump\t// in\n    tag_245:\n        /* \"#utility.yul\":7811:7874   */\n      swap4\n      pop\n        /* \"#utility.yul\":7767:7884   */\n      pop\n        /* \"#utility.yul\":7923:7925   */\n      0x20\n        /* \"#utility.yul\":7949:8002   */\n      tag_246\n        /* \"#utility.yul\":7994:8001   */\n      dup7\n        /* \"#utility.yul\":7985:7991   */\n      dup3\n        /* \"#utility.yul\":7974:7983   */\n      dup8\n        /* \"#utility.yul\":7970:7992   */\n      add\n        /* \"#utility.yul\":7949:8002   */\n      tag_115\n      jump\t// in\n    tag_246:\n        /* \"#utility.yul\":7939:8002   */\n      swap3\n      pop\n        /* \"#utility.yul\":7894:8012   */\n      pop\n        /* \"#utility.yul\":8079:8081   */\n      0x40\n        /* \"#utility.yul\":8068:8077   */\n      dup5\n        /* \"#utility.yul\":8064:8082   */\n      add\n        /* \"#utility.yul\":8051:8083   */\n      calldataload\n        /* \"#utility.yul\":8110:8128   */\n      0xffffffffffffffff\n        /* \"#utility.yul\":8102:8108   */\n      dup2\n        /* \"#utility.yul\":8099:8129   */\n      gt\n        /* \"#utility.yul\":8096:8213   */\n      iszero\n      tag_247\n      jumpi\n        /* \"#utility.yul\":8132:8211   */\n      tag_248\n      tag_111\n      jump\t// in\n    tag_248:\n        /* \"#utility.yul\":8096:8213   */\n    tag_247:\n        /* \"#utility.yul\":8237:8300   */\n      tag_249\n        /* \"#utility.yul\":8292:8299   */\n      dup7\n        /* \"#utility.yul\":8283:8289   */\n      dup3\n        /* \"#utility.yul\":8272:8281   */\n      dup8\n        /* \"#utility.yul\":8268:8290   */\n      add\n        /* \"#utility.yul\":8237:8300   */\n      tag_136\n      jump\t// in\n    tag_249:\n        /* \"#utility.yul\":8227:8300   */\n      swap2\n      pop\n        /* \"#utility.yul\":8022:8310   */\n      pop\n        /* \"#utility.yul\":7518:8317   */\n      swap3\n      pop\n      swap3\n      pop\n      swap3\n      jump\t// out\n        /* \"#utility.yul\":8323:8977   */\n    tag_51:\n        /* \"#utility.yul\":8401:8407   */\n      0x00\n        /* \"#utility.yul\":8409:8415   */\n      dup1\n        /* \"#utility.yul\":8458:8460   */\n      0x40\n        /* \"#utility.yul\":8446:8455   */\n      dup4\n        /* \"#utility.yul\":8437:8444   */\n      dup6\n        /* \"#utility.yul\":8433:8456   */\n      sub\n        /* \"#utility.yul\":8429:8461   */\n      slt\n        /* \"#utility.yul\":8426:8545   */\n      iszero\n      tag_251\n      jumpi\n        /* \"#utility.yul\":8464:8543   */\n      tag_252\n      tag_110\n      jump\t// in\n    tag_252:\n        /* \"#utility.yul\":8426:8545   */\n    tag_251:\n        /* \"#utility.yul\":8584:8585   */\n      0x00\n        /* \"#utility.yul\":8609:8662   */\n      tag_253\n        /* \"#utility.yul\":8654:8661   */\n      dup6\n        /* \"#utility.yul\":8645:8651   */\n      dup3\n        /* \"#utility.yul\":8634:8643   */\n      dup7\n        /* \"#utility.yul\":8630:8652   */\n      add\n        /* \"#utility.yul\":8609:8662   */\n      tag_115\n      jump\t// in\n    tag_253:\n        /* \"#utility.yul\":8599:8662   */\n      swap3\n      pop\n        /* \"#utility.yul\":8555:8672   */\n      pop\n        /* \"#utility.yul\":8739:8741   */\n      0x20\n        /* \"#utility.yul\":8728:8737   */\n      dup4\n        /* \"#utility.yul\":8724:8742   */\n      add\n        /* \"#utility.yul\":8711:8743   */\n      calldataload\n        /* \"#utility.yul\":8770:8788   */\n      0xffffffffffffffff\n        /* \"#utility.yul\":8762:8768   */\n      dup2\n        /* \"#utility.yul\":8759:8789   */\n      gt\n        /* \"#utility.yul\":8756:8873   */\n      iszero\n      tag_254\n      jumpi\n        /* \"#utility.yul\":8792:8871   */\n      tag_255\n      tag_111\n      jump\t// in\n    tag_255:\n        /* \"#utility.yul\":8756:8873   */\n    tag_254:\n        /* \"#utility.yul\":8897:8960   */\n      tag_256\n        /* \"#utility.yul\":8952:8959   */\n      dup6\n        /* \"#utility.yul\":8943:8949   */\n      dup3\n        /* \"#utility.yul\":8932:8941   */\n      dup7\n        /* \"#utility.yul\":8928:8950   */\n      add\n        /* \"#utility.yul\":8897:8960   */\n      tag_136\n      jump\t// in\n    tag_256:\n        /* \"#utility.yul\":8887:8960   */\n      swap2\n      pop\n        /* \"#utility.yul\":8682:8970   */\n      pop\n        /* \"#utility.yul\":8323:8977   */\n      swap3\n      pop\n      swap3\n      swap1\n      pop\n      jump\t// out\n        /* \"#utility.yul\":8983:9312   */\n    tag_58:\n        /* \"#utility.yul\":9042:9048   */\n      0x00\n        /* \"#utility.yul\":9091:9093   */\n      0x20\n        /* \"#utility.yul\":9079:9088   */\n      dup3\n        /* \"#utility.yul\":9070:9077   */\n      dup5\n        /* \"#utility.yul\":9066:9089   */\n      sub\n        /* \"#utility.yul\":9062:9094   */\n      slt\n        /* \"#utility.yul\":9059:9178   */\n      iszero\n      tag_258\n      jumpi\n        /* \"#utility.yul\":9097:9176   */\n      tag_259\n      tag_110\n      jump\t// in\n    tag_259:\n        /* \"#utility.yul\":9059:9178   */\n    tag_258:\n        /* \"#utility.yul\":9217:9218   */\n      0x00\n        /* \"#utility.yul\":9242:9295   */\n      tag_260\n        /* \"#utility.yul\":9287:9294   */\n      dup5\n        /* \"#utility.yul\":9278:9284   */\n      dup3\n        /* \"#utility.yul\":9267:9276   */\n      dup6\n        /* \"#utility.yul\":9263:9285   */\n      add\n        /* \"#utility.yul\":9242:9295   */\n      tag_120\n      jump\t// in\n    tag_260:\n        /* \"#utility.yul\":9232:9295   */\n      swap2\n      pop\n        /* \"#utility.yul\":9188:9305   */\n      pop\n        /* \"#utility.yul\":8983:9312   */\n      swap3\n      swap2\n      pop\n      pop\n      jump\t// out\n        /* \"#utility.yul\":9318:9962   */\n    tag_61:\n        /* \"#utility.yul\":9515:9519   */\n      0x00\n        /* \"#utility.yul\":9553:9556   */\n      0x80\n        /* \"#utility.yul\":9542:9551   */\n      dup3\n        /* \"#utility.yul\":9538:9557   */\n      add\n        /* \"#utility.yul\":9530:9557   */\n      swap1\n      pop\n        /* \"#utility.yul\":9567:9638   */\n      tag_262\n        /* \"#utility.yul\":9635:9636   */\n      0x00\n        /* \"#utility.yul\":9624:9633   */\n      dup4\n        /* \"#utility.yul\":9620:9637   */\n      add\n        /* \"#utility.yul\":9611:9617   */\n      dup8\n        /* \"#utility.yul\":9567:9638   */\n      tag_121\n      jump\t// in\n    tag_262:\n        /* \"#utility.yul\":9648:9720   */\n      tag_263\n        /* \"#utility.yul\":9716:9718   */\n      0x20\n        /* \"#utility.yul\":9705:9714   */\n      dup4\n        /* \"#utility.yul\":9701:9719   */\n      add\n        /* \"#utility.yul\":9692:9698   */\n      dup7\n        /* \"#utility.yul\":9648:9720   */\n      tag_127\n      jump\t// in\n    tag_263:\n        /* \"#utility.yul\":9767:9776   */\n      dup2\n        /* \"#utility.yul\":9761:9765   */\n      dup2\n        /* \"#utility.yul\":9757:9777   */\n      sub\n        /* \"#utility.yul\":9752:9754   */\n      0x40\n        /* \"#utility.yul\":9741:9750   */\n      dup4\n        /* \"#utility.yul\":9737:9755   */\n      add\n        /* \"#utility.yul\":9730:9778   */\n      mstore\n        /* \"#utility.yul\":9795:9873   */\n      tag_264\n        /* \"#utility.yul\":9868:9872   */\n      dup2\n        /* \"#utility.yul\":9859:9865   */\n      dup6\n        /* \"#utility.yul\":9795:9873   */\n      tag_126\n      jump\t// in\n    tag_264:\n        /* \"#utility.yul\":9787:9873   */\n      swap1\n      pop\n        /* \"#utility.yul\":9883:9955   */\n      tag_265\n        /* \"#utility.yul\":9951:9953   */\n      0x60\n        /* \"#utility.yul\":9940:9949   */\n      dup4\n        /* \"#utility.yul\":9936:9954   */\n      add\n        /* \"#utility.yul\":9927:9933   */\n      dup5\n        /* \"#utility.yul\":9883:9955   */\n      tag_121\n      jump\t// in\n    tag_265:\n        /* \"#utility.yul\":9318:9962   */\n      swap6\n      swap5\n      pop\n      pop\n      pop\n      pop\n      pop\n      jump\t// out\n        /* \"#utility.yul\":9968:10477   */\n    tag_64:\n        /* \"#utility.yul\":10037:10043   */\n      0x00\n        /* \"#utility.yul\":10086:10088   */\n      0x20\n        /* \"#utility.yul\":10074:10083   */\n      dup3\n        /* \"#utility.yul\":10065:10072   */\n      dup5\n        /* \"#utility.yul\":10061:10084   */\n      sub\n        /* \"#utility.yul\":10057:10089   */\n      slt\n        /* \"#utility.yul\":10054:10173   */\n      iszero\n      tag_267\n      jumpi\n        /* \"#utility.yul\":10092:10171   */\n      tag_268\n      tag_110\n      jump\t// in\n    tag_268:\n        /* \"#utility.yul\":10054:10173   */\n    tag_267:\n        /* \"#utility.yul\":10240:10241   */\n      0x00\n        /* \"#utility.yul\":10229:10238   */\n      dup3\n        /* \"#utility.yul\":10225:10242   */\n      add\n        /* \"#utility.yul\":10212:10243   */\n      calldataload\n        /* \"#utility.yul\":10270:10288   */\n      0xffffffffffffffff\n        /* \"#utility.yul\":10262:10268   */\n      dup2\n        /* \"#utility.yul\":10259:10289   */\n      gt\n        /* \"#utility.yul\":10256:10373   */\n      iszero\n      tag_269\n      jumpi\n        /* \"#utility.yul\":10292:10371   */\n      tag_270\n      tag_111\n      jump\t// in\n    tag_270:\n        /* \"#utility.yul\":10256:10373   */\n    tag_269:\n        /* \"#utility.yul\":10397:10460   */\n      tag_271\n        /* \"#utility.yul\":10452:10459   */\n      dup5\n        /* \"#utility.yul\":10443:10449   */\n      dup3\n        /* \"#utility.yul\":10432:10441   */\n      dup6\n        /* \"#utility.yul\":10428:10450   */\n      add\n        /* \"#utility.yul\":10397:10460   */\n      tag_136\n      jump\t// in\n    tag_271:\n        /* \"#utility.yul\":10387:10460   */\n      swap2\n      pop\n        /* \"#utility.yul\":10183:10470   */\n      pop\n        /* \"#utility.yul\":9968:10477   */\n      swap3\n      swap2\n      pop\n      pop\n      jump\t// out\n        /* \"#utility.yul\":10483:10663   */\n    tag_137:\n        /* \"#utility.yul\":10531:10608   */\n      0x4e487b7100000000000000000000000000000000000000000000000000000000\n        /* \"#utility.yul\":10528:10529   */\n      0x00\n        /* \"#utility.yul\":10521:10609   */\n      mstore\n        /* \"#utility.yul\":10628:10632   */\n      0x22\n        /* \"#utility.yul\":10625:10626   */\n      0x04\n        /* \"#utility.yul\":10618:10633   */\n      mstore\n        /* \"#utility.yul\":10652:10656   */\n      0x24\n        /* \"#utility.yul\":10649:10650   */\n      0x00\n        /* \"#utility.yul\":10642:10657   */\n      revert\n        /* \"#utility.yul\":10669:10989   */\n    tag_72:\n        /* \"#utility.yul\":10713:10719   */\n      0x00\n        /* \"#utility.yul\":10750:10751   */\n      0x02\n        /* \"#utility.yul\":10744:10748   */\n      dup3\n        /* \"#utility.yul\":10740:10752   */\n      div\n        /* \"#utility.yul\":10730:10752   */\n      swap1\n      pop\n        /* \"#utility.yul\":10797:10798   */\n      0x01\n        /* \"#utility.yul\":10791:10795   */\n      dup3\n        /* \"#utility.yul\":10787:10799   */\n      and\n        /* \"#utility.yul\":10818:10836   */\n      dup1\n        /* \"#utility.yul\":10808:10889   */\n      tag_274\n      jumpi\n        /* \"#utility.yul\":10874:10878   */\n      0x7f\n        /* \"#utility.yul\":10866:10872   */\n      dup3\n        /* \"#utility.yul\":10862:10879   */\n      and\n        /* \"#utility.yul\":10852:10879   */\n      swap2\n      pop\n        /* \"#utility.yul\":10808:10889   */\n    tag_274:\n        /* \"#utility.yul\":10936:10938   */\n      0x20\n        /* \"#utility.yul\":10928:10934   */\n      dup3\n        /* \"#utility.yul\":10925:10939   */\n      lt\n        /* \"#utility.yul\":10905:10923   */\n      dup2\n        /* \"#utility.yul\":10902:10940   */\n      sub\n        /* \"#utility.yul\":10899:10983   */\n      tag_275\n      jumpi\n        /* \"#utility.yul\":10955:10973   */\n      tag_276\n      tag_137\n      jump\t// in\n    tag_276:\n        /* \"#utility.yul\":10899:10983   */\n    tag_275:\n        /* \"#utility.yul\":10720:10989   */\n      pop\n        /* \"#utility.yul\":10669:10989   */\n      swap2\n      swap1\n      pop\n      jump\t// out\n        /* \"#utility.yul\":10995:11136   */\n    tag_138:\n        /* \"#utility.yul\":11044:11048   */\n      0x00\n        /* \"#utility.yul\":11067:11070   */\n      dup2\n        /* \"#utility.yul\":11059:11070   */\n      swap1\n      pop\n        /* \"#utility.yul\":11090:11093   */\n      dup2\n        /* \"#utility.yul\":11087:11088   */\n      0x00\n        /* \"#utility.yul\":11080:11094   */\n      mstore\n        /* \"#utility.yul\":11124:11128   */\n      0x20\n        /* \"#utility.yul\":11121:11122   */\n      0x00\n        /* \"#utility.yul\":11111:11129   */\n      keccak256\n        /* \"#utility.yul\":11103:11129   */\n      swap1\n      pop\n        /* \"#utility.yul\":10995:11136   */\n      swap2\n      swap1\n      pop\n      jump\t// out\n        /* \"#utility.yul\":11142:11235   */\n    tag_139:\n        /* \"#utility.yul\":11179:11185   */\n      0x00\n        /* \"#utility.yul\":11226:11228   */\n      0x20\n        /* \"#utility.yul\":11221:11223   */\n      0x1f\n        /* \"#utility.yul\":11214:11219   */\n      dup4\n        /* \"#utility.yul\":11210:11224   */\n      add\n        /* \"#utility.yul\":11206:11229   */\n      div\n        /* \"#utility.yul\":11196:11229   */\n      swap1\n      pop\n        /* \"#utility.yul\":11142:11235   */\n      swap2\n      swap1\n      pop\n      jump\t// out\n        /* \"#utility.yul\":11241:11348   */\n    tag_140:\n        /* \"#utility.yul\":11285:11293   */\n      0x00\n        /* \"#utility.yul\":11335:11340   */\n      dup3\n        /* \"#utility.yul\":11329:11333   */\n      dup3\n        /* \"#utility.yul\":11325:11341   */\n      shl\n        /* \"#utility.yul\":11304:11341   */\n      swap1\n      pop\n        /* \"#utility.yul\":11241:11348   */\n      swap3\n      swap2\n      pop\n      pop\n      jump\t// out\n        /* \"#utility.yul\":11354:11747   */\n    tag_141:\n        /* \"#utility.yul\":11423:11429   */\n      0x00\n        /* \"#utility.yul\":11473:11474   */\n      0x08\n        /* \"#utility.yul\":11461:11471   */\n      dup4\n        /* \"#utility.yul\":11457:11475   */\n      mul\n        /* \"#utility.yul\":11496:11593   */\n      tag_281\n        /* \"#utility.yul\":11526:11592   */\n      0xffffffffffffffffffffffffffffffffffffffffffffffffffffffffffffffff\n        /* \"#utility.yul\":11515:11524   */\n      dup3\n        /* \"#utility.yul\":11496:11593   */\n      tag_140\n      jump\t// in\n    tag_281:\n        /* \"#utility.yul\":11614:11653   */\n      tag_282\n        /* \"#utility.yul\":11644:11652   */\n      dup7\n        /* \"#utility.yul\":11633:11642   */\n      dup4\n        /* \"#utility.yul\":11614:11653   */\n      tag_140\n      jump\t// in\n    tag_282:\n        /* \"#utility.yul\":11602:11653   */\n      swap6\n      pop\n        /* \"#utility.yul\":11686:11690   */\n      dup1\n        /* \"#utility.yul\":11682:11691   */\n      not\n        /* \"#utility.yul\":11675:11680   */\n      dup5\n        /* \"#utility.yul\":11671:11692   */\n      and\n        /* \"#utility.yul\":11662:11692   */\n      swap4\n      pop\n        /* \"#utility.yul\":11735:11739   */\n      dup1\n        /* \"#utility.yul\":11725:11733   */\n      dup7\n        /* \"#utility.yul\":11721:11740   */\n      and\n        /* \"#utility.yul\":11714:11719   */\n      dup5\n        /* \"#utility.yul\":11711:11741   */\n      or\n        /* \"#utility.yul\":11701:11741   */\n      swap3\n      pop\n        /* \"#utility.yul\":11430:11747   */\n      pop\n      pop\n        /* \"#utility.yul\":11354:11747   */\n      swap4\n      swap3\n      pop\n      pop\n      pop\n      jump\t// out\n        /* \"#utility.yul\":11753:11813   */\n    tag_142:\n        /* \"#utility.yul\":11781:11784   */\n      0x00\n        /* \"#utility.yul\":11802:11807   */\n      dup2\n        /* \"#utility.yul\":11795:11807   */\n      swap1\n      pop\n        /* \"#utility.yul\":11753:11813   */\n      swap2\n      swap1\n      pop\n      jump\t// out\n        /* \"#utility.yul\":11819:11961   */\n    tag_143:\n        /* \"#utility.yul\":11869:11878   */\n      0x00\n        /* \"#utility.yul\":11902:11955   */\n      tag_285\n        /* \"#utility.yul\":11920:11954   */\n      tag_286\n        /* \"#utility.yul\":11929:11953   */\n      tag_287\n        /* \"#utility.yul\":11947:11952   */\n      dup5\n        /* \"#utility.yul\":11929:11953   */\n      tag_118\n      jump\t// in\n    tag_287:\n        /* \"#utility.yul\":11920:11954   */\n      tag_142\n      jump\t// in\n    tag_286:\n        /* \"#utility.yul\":11902:11955   */\n      tag_118\n      jump\t// in\n    tag_285:\n        /* \"#utility.yul\":11889:11955   */\n      swap1\n      pop\n        /* \"#utility.yul\":11819:11961   */\n      swap2\n      swap1\n      pop\n      jump\t// out\n        /* \"#utility.yul\":11967:12042   */\n    tag_144:\n        /* \"#utility.yul\":12010:12013   */\n      0x00\n        /* \"#utility.yul\":12031:12036   */\n      dup2\n        /* \"#utility.yul\":12024:12036   */\n      swap1\n      pop\n        /* \"#utility.yul\":11967:12042   */\n      swap2\n      swap1\n      pop\n      jump\t// out\n        /* \"#utility.yul\":12048:12317   */\n    tag_145:\n        /* \"#utility.yul\":12158:12197   */\n      tag_290\n        /* \"#utility.yul\":12189:12196   */\n      dup4\n        /* \"#utility.yul\":12158:12197   */\n      tag_143\n      jump\t// in\n    tag_290:\n        /* \"#utility.yul\":12219:12310   */\n      tag_291\n        /* \"#utility.yul\":12268:12309   */\n      tag_292\n        /* \"#utility.yul\":12292:12308   */\n      dup3\n        /* \"#utility.yul\":12268:12309   */\n      tag_144\n      jump\t// in\n    tag_292:\n        /* \"#utility.yul\":12260:12266   */\n      dup5\n        /* \"#utility.yul\":12253:12257   */\n      dup5\n        /* \"#utility.yul\":12247:12258   */\n      sload\n        /* \"#utility.yul\":12219:12310   */\n      tag_141\n      jump\t// in\n    tag_291:\n        /* \"#utility.yul\":12213:12217   */\n      dup3\n        /* \"#utility.yul\":12206:12311   */\n      sstore\n        /* \"#utility.yul\":12124:12317   */\n      pop\n        /* \"#utility.yul\":12048:12317   */\n      pop\n      pop\n      pop\n      jump\t// out\n        /* \"#utility.yul\":12323:12396   */\n    tag_146:\n        /* \"#utility.yul\":12368:12371   */\n      0x00\n        /* \"#utility.yul\":12323:12396   */\n      swap1\n      jump\t// out\n        /* \"#utility.yul\":12402:12591   */\n    tag_147:\n        /* \"#utility.yul\":12479:12511   */\n      tag_295\n      tag_146\n      jump\t// in\n    tag_295:\n        /* \"#utility.yul\":12520:12585   */\n      tag_296\n        /* \"#utility.yul\":12578:12584   */\n      dup2\n        /* \"#utility.yul\":12570:12576   */\n      dup5\n        /* \"#utility.yul\":12564:12568   */\n      dup5\n        /* \"#utility.yul\":12520:12585   */\n      tag_145\n      jump\t// in\n    tag_296:\n        /* \"#utility.yul\":12455:12591   */\n      pop\n        /* \"#utility.yul\":12402:12591   */\n      pop\n      pop\n      jump\t// out\n        /* \"#utility.yul\":12597:12783   */\n    tag_148:\n        /* \"#utility.yul\":12657:12777   */\n    tag_298:\n        /* \"#utility.yul\":12674:12677   */\n      dup2\n        /* \"#utility.yul\":12667:12672   */\n      dup2\n        /* \"#utility.yul\":12664:12678   */\n      lt\n        /* \"#utility.yul\":12657:12777   */\n      iszero\n      tag_300\n      jumpi\n        /* \"#utility.yul\":12728:12767   */\n      tag_301\n        /* \"#utility.yul\":12765:12766   */\n      0x00\n        /* \"#utility.yul\":12758:12763   */\n      dup3\n        /* \"#utility.yul\":12728:12767   */\n      tag_147\n      jump\t// in\n    tag_301:\n        /* \"#utility.yul\":12701:12702   */\n      0x01\n        /* \"#utility.yul\":12694:12699   */\n      dup2\n        /* \"#utility.yul\":12690:12703   */\n      add\n        /* \"#utility.yul\":12681:12703   */\n      swap1\n      pop\n        /* \"#utility.yul\":12657:12777   */\n      jump(tag_298)\n    tag_300:\n        /* \"#utility.yul\":12597:12783   */\n      pop\n      pop\n      jump\t// out\n        /* \"#utility.yul\":12789:13332   */\n    tag_149:\n        /* \"#utility.yul\":12890:12892   */\n      0x1f\n        /* \"#utility.yul\":12885:12888   */\n      dup3\n        /* \"#utility.yul\":12882:12893   */\n      gt\n        /* \"#utility.yul\":12879:13325   */\n      iszero\n      tag_303\n      jumpi\n        /* \"#utility.yul\":12924:12962   */\n      tag_304\n        /* \"#utility.yul\":12956:12961   */\n      dup2\n        /* \"#utility.yul\":12924:12962   */\n      tag_138\n      jump\t// in\n    tag_304:\n        /* \"#utility.yul\":13008:13037   */\n      tag_305\n        /* \"#utility.yul\":13026:13036   */\n      dup5\n        /* \"#utility.yul\":13008:13037   */\n      tag_139\n      jump\t// in\n    tag_305:\n        /* \"#utility.yul\":12998:13006   */\n      dup2\n        /* \"#utility.yul\":12994:13038   */\n      add\n        /* \"#utility.yul\":13191:13193   */\n      0x20\n        /* \"#utility.yul\":13179:13189   */\n      dup6\n        /* \"#utility.yul\":13176:13194   */\n      lt\n        /* \"#utility.yul\":13173:13222   */\n      iszero\n      tag_306\n      jumpi\n        /* \"#utility.yul\":13212:13220   */\n      dup2\n        /* \"#utility.yul\":13197:13220   */\n      swap1\n      pop\n        /* \"#utility.yul\":13173:13222   */\n    tag_306:\n        /* \"#utility.yul\":13235:13315   */\n      tag_307\n        /* \"#utility.yul\":13291:13313   */\n      tag_308\n        /* \"#utility.yul\":13309:13312   */\n      dup6\n        /* \"#utility.yul\":13291:13313   */\n      tag_139\n      jump\t// in\n    tag_308:\n        /* \"#utility.yul\":13281:13289   */\n      dup4\n        /* \"#utility.yul\":13277:13314   */\n      add\n        /* \"#utility.yul\":13264:13275   */\n      dup3\n        /* \"#utility.yul\":13235:13315   */\n      tag_148\n      jump\t// in\n    tag_307:\n        /* \"#utility.yul\":12894:13325   */\n      pop\n      pop\n        /* \"#utility.yul\":12879:13325   */\n    tag_303:\n        /* \"#utility.yul\":12789:13332   */\n      pop\n      pop\n      pop\n      jump\t// out\n        /* \"#utility.yul\":13338:13455   */\n    tag_150:\n        /* \"#utility.yul\":13392:13400   */\n      0x00\n        /* \"#utility.yul\":13442:13447   */\n      dup3\n        /* \"#utility.yul\":13436:13440   */\n      dup3\n        /* \"#utility.yul\":13432:13448   */\n      shr\n        /* \"#utility.yul\":13411:13448   */\n      swap1\n      pop\n        /* \"#utility.yul\":13338:13455   */\n      swap3\n      swap2\n      pop\n      pop\n      jump\t// out\n        /* \"#utility.yul\":13461:13630   */\n    tag_151:\n        /* \"#utility.yul\":13505:13511   */\n      0x00\n        /* \"#utility.yul\":13538:13589   */\n      tag_311\n        /* \"#utility.yul\":13586:13587   */\n      0x00\n        /* \"#utility.yul\":13582:13588   */\n      not\n        /* \"#utility.yul\":13574:13579   */\n      dup5\n        /* \"#utility.yul\":13571:13572   */\n      0x08\n        /* \"#utility.yul\":13567:13580   */\n      mul\n        /* \"#utility.yul\":13538:13589   */\n      tag_150\n      jump\t// in\n    tag_311:\n        /* \"#utility.yul\":13534:13590   */\n      not\n        /* \"#utility.yul\":13619:13623   */\n      dup1\n        /* \"#utility.yul\":13613:13617   */\n      dup4\n        /* \"#utility.yul\":13609:13624   */\n      and\n        /* \"#utility.yul\":13599:13624   */\n      swap2\n      pop\n        /* \"#utility.yul\":13512:13630   */\n      pop\n        /* \"#utility.yul\":13461:13630   */\n      swap3\n      swap2\n      pop\n      pop\n      jump\t// out\n        /* \"#utility.yul\":13635:13930   */\n    tag_152:\n        /* \"#utility.yul\":13711:13715   */\n      0x00\n        /* \"#utility.yul\":13857:13886   */\n      tag_313\n        /* \"#utility.yul\":13882:13885   */\n      dup4\n        /* \"#utility.yul\":13876:13880   */\n      dup4\n        /* \"#utility.yul\":13857:13886   */\n      tag_151\n      jump\t// in\n    tag_313:\n        /* \"#utility.yul\":13849:13886   */\n      swap2\n      pop\n        /* \"#utility.yul\":13919:13922   */\n      dup3\n        /* \"#utility.yul\":13916:13917   */\n      0x02\n        /* \"#utility.yul\":13912:13923   */\n      mul\n        /* \"#utility.yul\":13906:13910   */\n      dup3\n        /* \"#utility.yul\":13903:13924   */\n      or\n        /* \"#utility.yul\":13895:13924   */\n      swap1\n      pop\n        /* \"#utility.yul\":13635:13930   */\n      swap3\n      swap2\n      pop\n      pop\n      jump\t// out\n        /* \"#utility.yul\":13935:15330   */\n    tag_103:\n        /* \"#utility.yul\":14052:14089   */\n      tag_315\n        /* \"#utility.yul\":14085:14088   */\n      dup3\n        /* \"#utility.yul\":14052:14089   */\n      tag_122\n      jump\t// in\n    tag_315:\n        /* \"#utility.yul\":14154:14172   */\n      0xffffffffffffffff\n        /* \"#utility.yul\":14146:14152   */\n      dup2\n        /* \"#utility.yul\":14143:14173   */\n      gt\n        /* \"#utility.yul\":14140:14196   */\n      iszero\n      tag_316\n      jumpi\n        /* \"#utility.yul\":14176:14194   */\n      tag_317\n      tag_130\n      jump\t// in\n    tag_317:\n        /* \"#utility.yul\":14140:14196   */\n    tag_316:\n        /* \"#utility.yul\":14220:14258   */\n      tag_318\n        /* \"#utility.yul\":14252:14256   */\n      dup3\n        /* \"#utility.yul\":14246:14257   */\n      sload\n        /* \"#utility.yul\":14220:14258   */\n      tag_72\n      jump\t// in\n    tag_318:\n        /* \"#utility.yul\":14305:14372   */\n      tag_319\n        /* \"#utility.yul\":14365:14371   */\n      dup3\n        /* \"#utility.yul\":14357:14363   */\n      dup3\n        /* \"#utility.yul\":14351:14355   */\n      dup6\n        /* \"#utility.yul\":14305:14372   */\n      tag_149\n      jump\t// in\n    tag_319:\n        /* \"#utility.yul\":14399:14400   */\n      0x00\n        /* \"#utility.yul\":14423:14427   */\n      0x20\n        /* \"#utility.yul\":14410:14427   */\n      swap1\n      pop\n        /* \"#utility.yul\":14455:14457   */\n      0x1f\n        /* \"#utility.yul\":14447:14453   */\n      dup4\n        /* \"#utility.yul\":14444:14458   */\n      gt\n        /* \"#utility.yul\":14472:14473   */\n      0x01\n        /* \"#utility.yul\":14467:15085   */\n      dup2\n      eq\n      tag_321\n      jumpi\n        /* \"#utility.yul\":15129:15130   */\n      0x00\n        /* \"#utility.yul\":15146:15152   */\n      dup5\n        /* \"#utility.yul\":15143:15220   */\n      iszero\n      tag_322\n      jumpi\n        /* \"#utility.yul\":15195:15204   */\n      dup3\n        /* \"#utility.yul\":15190:15193   */\n      dup8\n        /* \"#utility.yul\":15186:15205   */\n      add\n        /* \"#utility.yul\":15180:15206   */\n      mload\n        /* \"#utility.yul\":15171:15206   */\n      swap1\n      pop\n        /* \"#utility.yul\":15143:15220   */\n    tag_322:\n        /* \"#utility.yul\":15246:15313   */\n      tag_323\n        /* \"#utility.yul\":15306:15312   */\n      dup6\n        /* \"#utility.yul\":15299:15304   */\n      dup3\n        /* \"#utility.yul\":15246:15313   */\n      tag_152\n      jump\t// in\n    tag_323:\n        /* \"#utility.yul\":15240:15244   */\n      dup7\n        /* \"#utility.yul\":15233:15314   */\n      sstore\n        /* \"#utility.yul\":15102:15324   */\n      pop\n        /* \"#utility.yul\":14437:15324   */\n      jump(tag_320)\n        /* \"#utility.yul\":14467:15085   */\n    tag_321:\n        /* \"#utility.yul\":14519:14523   */\n      0x1f\n        /* \"#utility.yul\":14515:14524   */\n      not\n        /* \"#utility.yul\":14507:14513   */\n      dup5\n        /* \"#utility.yul\":14503:14525   */\n      and\n        /* \"#utility.yul\":14553:14590   */\n      tag_324\n        /* \"#utility.yul\":14585:14589   */\n      dup7\n        /* \"#utility.yul\":14553:14590   */\n      tag_138\n      jump\t// in\n    tag_324:\n        /* \"#utility.yul\":14612:14613   */\n      0x00\n        /* \"#utility.yul\":14626:14834   */\n    tag_325:\n        /* \"#utility.yul\":14640:14647   */\n      dup3\n        /* \"#utility.yul\":14637:14638   */\n      dup2\n        /* \"#utility.yul\":14634:14648   */\n      lt\n        /* \"#utility.yul\":14626:14834   */\n      iszero\n      tag_327\n      jumpi\n        /* \"#utility.yul\":14719:14728   */\n      dup5\n        /* \"#utility.yul\":14714:14717   */\n      dup10\n        /* \"#utility.yul\":14710:14729   */\n      add\n        /* \"#utility.yul\":14704:14730   */\n      mload\n        /* \"#utility.yul\":14696:14702   */\n      dup3\n        /* \"#utility.yul\":14689:14731   */\n      sstore\n        /* \"#utility.yul\":14770:14771   */\n      0x01\n        /* \"#utility.yul\":14762:14768   */\n      dup3\n        /* \"#utility.yul\":14758:14772   */\n      add\n        /* \"#utility.yul\":14748:14772   */\n      swap2\n      pop\n        /* \"#utility.yul\":14817:14819   */\n      0x20\n        /* \"#utility.yul\":14806:14815   */\n      dup6\n        /* \"#utility.yul\":14802:14820   */\n      add\n        /* \"#utility.yul\":14789:14820   */\n      swap5\n      pop\n        /* \"#utility.yul\":14663:14667   */\n      0x20\n        /* \"#utility.yul\":14660:14661   */\n      dup2\n        /* \"#utility.yul\":14656:14668   */\n      add\n        /* \"#utility.yul\":14651:14668   */\n      swap1\n      pop\n        /* \"#utility.yul\":14626:14834   */\n      jump(tag_325)\n    tag_327:\n        /* \"#utility.yul\":14862:14868   */\n      dup7\n        /* \"#utility.yul\":14853:14860   */\n      dup4\n        /* \"#utility.yul\":14850:14869   */\n      lt\n        /* \"#utility.yul\":14847:15026   */\n      iszero\n      tag_328\n      jumpi\n        /* \"#utility.yul\":14920:14929   */\n      dup5\n        /* \"#utility.yul\":14915:14918   */\n      dup10\n        /* \"#utility.yul\":14911:14930   */\n      add\n        /* \"#utility.yul\":14905:14931   */\n      mload\n        /* \"#utility.yul\":14963:15011   */\n      tag_329\n        /* \"#utility.yul\":15005:15009   */\n      0x1f\n        /* \"#utility.yul\":14997:15003   */\n      dup10\n        /* \"#utility.yul\":14993:15010   */\n      and\n        /* \"#utility.yul\":14982:14991   */\n      dup3\n        /* \"#utility.yul\":14963:15011   */\n      tag_151\n      jump\t// in\n    tag_329:\n        /* \"#utility.yul\":14955:14961   */\n      dup4\n        /* \"#utility.yul\":14948:15012   */\n      sstore\n        /* \"#utility.yul\":14870:15026   */\n      pop\n        /* \"#utility.yul\":14847:15026   */\n    tag_328:\n        /* \"#utility.yul\":15072:15073   */\n      0x01\n        /* \"#utility.yul\":15068:15069   */\n      0x02\n        /* \"#utility.yul\":15060:15066   */\n      dup9\n        /* \"#utility.yul\":15056:15070   */\n      mul\n        /* \"#utility.yul\":15052:15074   */\n      add\n        /* \"#utility.yul\":15046:15050   */\n      dup9\n        /* \"#utility.yul\":15039:15075   */\n      sstore\n        /* \"#utility.yul\":14474:15085   */\n      pop\n      pop\n      pop\n        /* \"#utility.yul\":14437:15324   */\n    tag_320:\n      pop\n        /* \"#utility.yul\":14027:15330   */\n      pop\n      pop\n      pop\n        /* \"#utility.yul\":13935:15330   */\n      pop\n      pop\n      jump\t// out\n        /* \"#utility.yul\":15336:15516   */\n    tag_153:\n        /* \"#utility.yul\":15384:15461   */\n      0x4e487b7100000000000000000000000000000000000000000000000000000000\n        /* \"#utility.yul\":15381:15382   */\n      0x00\n        /* \"#utility.yul\":15374:15462   */\n      mstore\n        /* \"#utility.yul\":15481:15485   */\n      0x11\n        /* \"#utility.yul\":15478:15479   */\n      0x04\n        /* \"#utility.yul\":15471:15486   */\n      mstore\n        /* \"#utility.yul\":15505:15509   */\n      0x24\n        /* \"#utility.yul\":15502:15503   */\n      0x00\n        /* \"#utility.yul\":15495:15510   */\n      revert\n        /* \"#utility.yul\":15522:15755   */\n    tag_105:\n        /* \"#utility.yul\":15561:15564   */\n      0x00\n        /* \"#utility.yul\":15584:15608   */\n      tag_332\n        /* \"#utility.yul\":15602:15607   */\n      dup3\n        /* \"#utility.yul\":15584:15608   */\n      tag_118\n      jump\t// in\n    tag_332:\n        /* \"#utility.yul\":15575:15608   */\n      swap2\n      pop\n        /* \"#utility.yul\":15630:15696   */\n      0xffffffffffffffffffffffffffffffffffffffffffffffffffffffffffffffff\n        /* \"#utility.yul\":15623:15628   */\n      dup3\n        /* \"#utility.yul\":15620:15697   */\n      sub\n        /* \"#utility.yul\":15617:15720   */\n      tag_333\n      jumpi\n        /* \"#utility.yul\":15700:15718   */\n      tag_334\n      tag_153\n      jump\t// in\n    tag_334:\n        /* \"#utility.yul\":15617:15720   */\n    tag_333:\n        /* \"#utility.yul\":15747:15748   */\n      0x01\n        /* \"#utility.yul\":15740:15745   */\n      dup3\n        /* \"#utility.yul\":15736:15749   */\n      add\n        /* \"#utility.yul\":15729:15749   */\n      swap1\n      pop\n        /* \"#utility.yul\":15522:15755   */\n      swap2\n      swap1\n      pop\n      jump\t// out\n\n    auxdata: 0xa26469706673582212206ede2b84c497419a302ea6078ca0d3f111f717fcb7cfac0a96039f5ad01fe8aa64736f6c63430008120033\n}\n",
				"bytecode": {
					"linkReferences": {},
					"object": "608060405234801561001057600080fd5b506112a9806100206000396000f3fe608060405234801561001057600080fd5b50600436106100b45760003560e01c8063b88e318d11610071578063b88e318d146101b5578063d21d1596146101d1578063de6f24bb146101ed578063e8d857b014610209578063fb46d4c51461023c578063ff9913e814610258576100b4565b80632637588e146100b95780633befea09146100e95780634dbf27cc1461011d5780639139cda514610139578063a9ed9cb814610169578063af22bf9414610185575b600080fd5b6100d360048036038101906100ce9190610a05565b610274565b6040516100e09190610a60565b60405180910390f35b61010360048036038101906100fe9190610ab1565b6102a3565b604051610114959493929190610b9f565b60405180910390f35b61013760048036038101906101329190610bf9565b6103be565b005b610153600480360381019061014e9190610ab1565b610461565b6040516101609190610c26565b60405180910390f35b610183600480360381019061017e9190610bf9565b6104af565b005b61019f600480360381019061019a9190610ab1565b610547565b6040516101ac9190610c41565b60405180910390f35b6101cf60048036038101906101ca9190610d91565b610578565b005b6101eb60048036038101906101e69190610e00565b610588565b005b61020760048036038101906102029190610e00565b610596565b005b610223600480360381019061021e9190610e5c565b6105a5565b6040516102339493929190610e89565b60405180910390f35b61025660048036038101906102519190610ed5565b61067d565b005b610272600480360381019061026d9190610bf9565b61068a565b005b60036020528160005260406000206020528060005260406000206000915091509054906101000a900460ff1681565b600260205281600052604060002081815481106102bf57600080fd5b9060005260206000209060050201600091509150508060000154908060010180546102e990610f4d565b80601f016020809104026020016040519081016040528092919081815260200182805461031590610f4d565b80156103625780601f1061033757610100808354040283529160200191610362565b820191906000526020600020905b81548152906001019060200180831161034557829003601f168201915b5050505050908060020160009054906101000a900473ffffffffffffffffffffffffffffffffffffffff16908060030160009054906101000a900473ffffffffffffffffffffffffffffffffffffffff16908060040154905085565b600460003373ffffffffffffffffffffffffffffffffffffffff1673ffffffffffffffffffffffffffffffffffffffff168152602001908152602001600020819080600181540180825580915050600190039060005260206000200160009091909190916101000a81548173ffffffffffffffffffffffffffffffffffffffff021916908373ffffffffffffffffffffffffffffffffffffffff16021790555050565b6004602052816000526040600020818154811061047d57600080fd5b906000526020600020016000915091509054906101000a900473ffffffffffffffffffffffffffffffffffffffff1681565b6000600360003373ffffffffffffffffffffffffffffffffffffffff1673ffffffffffffffffffffffffffffffffffffffff16815260200190815260200160002060008373ffffffffffffffffffffffffffffffffffffffff1673ffffffffffffffffffffffffffffffffffffffff16815260200190815260200160002060006101000a81548160ff02191690831515021790555050565b6001602052816000526040600020818154811061056357600080fd5b90600052602060002001600091509150505481565b610583838383610722565b505050565b61059282826108b6565b5050565b6105a1338383610722565b5050565b60006020528060005260406000206000915090508060000154908060010160009054906101000a900473ffffffffffffffffffffffffffffffffffffffff16908060020180546105f490610f4d565b80601f016020809104026020016040519081016040528092919081815260200182805461062090610f4d565b801561066d5780601f106106425761010080835404028352916020019161066d565b820191906000526020600020905b81548152906001019060200180831161065057829003601f168201915b5050505050908060030154905084565b61068733826108b6565b50565b6001600360003373ffffffffffffffffffffffffffffffffffffffff1673ffffffffffffffffffffffffffffffffffffffff16815260200190815260200160002060008373ffffffffffffffffffffffffffffffffffffffff1673ffffffffffffffffffffffffffffffffffffffff16815260200190815260200160002060006101000a81548160ff02191690831515021790555050565b600260008473ffffffffffffffffffffffffffffffffffffffff1673ffffffffffffffffffffffffffffffffffffffff1681526020019081526020016000206040518060a0016040528060065481526020018381526020018573ffffffffffffffffffffffffffffffffffffffff1681526020018473ffffffffffffffffffffffffffffffffffffffff1681526020014281525090806001815401808255809150506001900390600052602060002090600502016000909190919091506000820151816000015560208201518160010190816107fe919061112a565b5060408201518160020160006101000a81548173ffffffffffffffffffffffffffffffffffffffff021916908373ffffffffffffffffffffffffffffffffffffffff16021790555060608201518160030160006101000a81548173ffffffffffffffffffffffffffffffffffffffff021916908373ffffffffffffffffffffffffffffffffffffffff160217905550608082015181600401555050600660008154809291906108ac9061122b565b9190505550505050565b604051806080016040528060055481526020018373ffffffffffffffffffffffffffffffffffffffff1681526020018281526020014281525060008060055481526020019081526020016000206000820151816000015560208201518160010160006101000a81548173ffffffffffffffffffffffffffffffffffffffff021916908373ffffffffffffffffffffffffffffffffffffffff1602179055506040820151816002019081610969919061112a565b50606082015181600301559050506005600081548092919061098a9061122b565b91905055505050565b6000604051905090565b600080fd5b600080fd5b600073ffffffffffffffffffffffffffffffffffffffff82169050919050565b60006109d2826109a7565b9050919050565b6109e2816109c7565b81146109ed57600080fd5b50565b6000813590506109ff816109d9565b92915050565b60008060408385031215610a1c57610a1b61099d565b5b6000610a2a858286016109f0565b9250506020610a3b858286016109f0565b9150509250929050565b60008115159050919050565b610a5a81610a45565b82525050565b6000602082019050610a756000830184610a51565b92915050565b6000819050919050565b610a8e81610a7b565b8114610a9957600080fd5b50565b600081359050610aab81610a85565b92915050565b60008060408385031215610ac857610ac761099d565b5b6000610ad6858286016109f0565b9250506020610ae785828601610a9c565b9150509250929050565b610afa81610a7b565b82525050565b600081519050919050565b600082825260208201905092915050565b60005b83811015610b3a578082015181840152602081019050610b1f565b60008484015250505050565b6000601f19601f8301169050919050565b6000610b6282610b00565b610b6c8185610b0b565b9350610b7c818560208601610b1c565b610b8581610b46565b840191505092915050565b610b99816109c7565b82525050565b600060a082019050610bb46000830188610af1565b8181036020830152610bc68187610b57565b9050610bd56040830186610b90565b610be26060830185610b90565b610bef6080830184610af1565b9695505050505050565b600060208284031215610c0f57610c0e61099d565b5b6000610c1d848285016109f0565b91505092915050565b6000602082019050610c3b6000830184610b90565b92915050565b6000602082019050610c566000830184610af1565b92915050565b600080fd5b600080fd5b7f4e487b7100000000000000000000000000000000000000000000000000000000600052604160045260246000fd5b610c9e82610b46565b810181811067ffffffffffffffff82111715610cbd57610cbc610c66565b5b80604052505050565b6000610cd0610993565b9050610cdc8282610c95565b919050565b600067ffffffffffffffff821115610cfc57610cfb610c66565b5b610d0582610b46565b9050602081019050919050565b82818337600083830152505050565b6000610d34610d2f84610ce1565b610cc6565b905082815260208101848484011115610d5057610d4f610c61565b5b610d5b848285610d12565b509392505050565b600082601f830112610d7857610d77610c5c565b5b8135610d88848260208601610d21565b91505092915050565b600080600060608486031215610daa57610da961099d565b5b6000610db8868287016109f0565b9350506020610dc9868287016109f0565b925050604084013567ffffffffffffffff811115610dea57610de96109a2565b5b610df686828701610d63565b9150509250925092565b60008060408385031215610e1757610e1661099d565b5b6000610e25858286016109f0565b925050602083013567ffffffffffffffff811115610e4657610e456109a2565b5b610e5285828601610d63565b9150509250929050565b600060208284031215610e7257610e7161099d565b5b6000610e8084828501610a9c565b91505092915050565b6000608082019050610e9e6000830187610af1565b610eab6020830186610b90565b8181036040830152610ebd8185610b57565b9050610ecc6060830184610af1565b95945050505050565b600060208284031215610eeb57610eea61099d565b5b600082013567ffffffffffffffff811115610f0957610f086109a2565b5b610f1584828501610d63565b91505092915050565b7f4e487b7100000000000000000000000000000000000000000000000000000000600052602260045260246000fd5b60006002820490506001821680610f6557607f821691505b602082108103610f7857610f77610f1e565b5b50919050565b60008190508160005260206000209050919050565b60006020601f8301049050919050565b600082821b905092915050565b600060088302610fe07fffffffffffffffffffffffffffffffffffffffffffffffffffffffffffffffff82610fa3565b610fea8683610fa3565b95508019841693508086168417925050509392505050565b6000819050919050565b600061102761102261101d84610a7b565b611002565b610a7b565b9050919050565b6000819050919050565b6110418361100c565b61105561104d8261102e565b848454610fb0565b825550505050565b600090565b61106a61105d565b611075818484611038565b505050565b5b818110156110995761108e600082611062565b60018101905061107b565b5050565b601f8211156110de576110af81610f7e565b6110b884610f93565b810160208510156110c7578190505b6110db6110d385610f93565b83018261107a565b50505b505050565b600082821c905092915050565b6000611101600019846008026110e3565b1980831691505092915050565b600061111a83836110f0565b9150826002028217905092915050565b61113382610b00565b67ffffffffffffffff81111561114c5761114b610c66565b5b6111568254610f4d565b61116182828561109d565b600060209050601f8311600181146111945760008415611182578287015190505b61118c858261110e565b8655506111f4565b601f1984166111a286610f7e565b60005b828110156111ca578489015182556001820191506020850194506020810190506111a5565b868310156111e757848901516111e3601f8916826110f0565b8355505b6001600288020188555050505b505050505050565b7f4e487b7100000000000000000000000000000000000000000000000000000000600052601160045260246000fd5b600061123682610a7b565b91507fffffffffffffffffffffffffffffffffffffffffffffffffffffffffffffffff8203611268576112676111fc565b5b60018201905091905056fea26469706673582212206ede2b84c497419a302ea6078ca0d3f111f717fcb7cfac0a96039f5ad01fe8aa64736f6c63430008120033",
					"opcodes": "PUSH1 0x80 PUSH1 0x40 MSTORE CALLVALUE DUP1 ISZERO PUSH2 0x10 JUMPI PUSH1 0x0 DUP1 REVERT JUMPDEST POP PUSH2 0x12A9 DUP1 PUSH2 0x20 PUSH1 0x0 CODECOPY PUSH1 0x0 RETURN INVALID PUSH1 0x80 PUSH1 0x40 MSTORE CALLVALUE DUP1 ISZERO PUSH2 0x10 JUMPI PUSH1 0x0 DUP1 REVERT JUMPDEST POP PUSH1 0x4 CALLDATASIZE LT PUSH2 0xB4 JUMPI PUSH1 0x0 CALLDATALOAD PUSH1 0xE0 SHR DUP1 PUSH4 0xB88E318D GT PUSH2 0x71 JUMPI DUP1 PUSH4 0xB88E318D EQ PUSH2 0x1B5 JUMPI DUP1 PUSH4 0xD21D1596 EQ PUSH2 0x1D1 JUMPI DUP1 PUSH4 0xDE6F24BB EQ PUSH2 0x1ED JUMPI DUP1 PUSH4 0xE8D857B0 EQ PUSH2 0x209 JUMPI DUP1 PUSH4 0xFB46D4C5 EQ PUSH2 0x23C JUMPI DUP1 PUSH4 0xFF9913E8 EQ PUSH2 0x258 JUMPI PUSH2 0xB4 JUMP JUMPDEST DUP1 PUSH4 0x2637588E EQ PUSH2 0xB9 JUMPI DUP1 PUSH4 0x3BEFEA09 EQ PUSH2 0xE9 JUMPI DUP1 PUSH4 0x4DBF27CC EQ PUSH2 0x11D JUMPI DUP1 PUSH4 0x9139CDA5 EQ PUSH2 0x139 JUMPI DUP1 PUSH4 0xA9ED9CB8 EQ PUSH2 0x169 JUMPI DUP1 PUSH4 0xAF22BF94 EQ PUSH2 0x185 JUMPI JUMPDEST PUSH1 0x0 DUP1 REVERT JUMPDEST PUSH2 0xD3 PUSH1 0x4 DUP1 CALLDATASIZE SUB DUP2 ADD SWAP1 PUSH2 0xCE SWAP2 SWAP1 PUSH2 0xA05 JUMP JUMPDEST PUSH2 0x274 JUMP JUMPDEST PUSH1 0x40 MLOAD PUSH2 0xE0 SWAP2 SWAP1 PUSH2 0xA60 JUMP JUMPDEST PUSH1 0x40 MLOAD DUP1 SWAP2 SUB SWAP1 RETURN JUMPDEST PUSH2 0x103 PUSH1 0x4 DUP1 CALLDATASIZE SUB DUP2 ADD SWAP1 PUSH2 0xFE SWAP2 SWAP1 PUSH2 0xAB1 JUMP JUMPDEST PUSH2 0x2A3 JUMP JUMPDEST PUSH1 0x40 MLOAD PUSH2 0x114 SWAP6 SWAP5 SWAP4 SWAP3 SWAP2 SWAP1 PUSH2 0xB9F JUMP JUMPDEST PUSH1 0x40 MLOAD DUP1 SWAP2 SUB SWAP1 RETURN JUMPDEST PUSH2 0x137 PUSH1 0x4 DUP1 CALLDATASIZE SUB DUP2 ADD SWAP1 PUSH2 0x132 SWAP2 SWAP1 PUSH2 0xBF9 JUMP JUMPDEST PUSH2 0x3BE JUMP JUMPDEST STOP JUMPDEST PUSH2 0x153 PUSH1 0x4 DUP1 CALLDATASIZE SUB DUP2 ADD SWAP1 PUSH2 0x14E SWAP2 SWAP1 PUSH2 0xAB1 JUMP JUMPDEST PUSH2 0x461 JUMP JUMPDEST PUSH1 0x40 MLOAD PUSH2 0x160 SWAP2 SWAP1 PUSH2 0xC26 JUMP JUMPDEST PUSH1 0x40 MLOAD DUP1 SWAP2 SUB SWAP1 RETURN JUMPDEST PUSH2 0x183 PUSH1 0x4 DUP1 CALLDATASIZE SUB DUP2 ADD SWAP1 PUSH2 0x17E SWAP2 SWAP1 PUSH2 0xBF9 JUMP JUMPDEST PUSH2 0x4AF JUMP JUMPDEST STOP JUMPDEST PUSH2 0x19F PUSH1 0x4 DUP1 CALLDATASIZE SUB DUP2 ADD SWAP1 PUSH2 0x19A SWAP2 SWAP1 PUSH2 0xAB1 JUMP JUMPDEST PUSH2 0x547 JUMP JUMPDEST PUSH1 0x40 MLOAD PUSH2 0x1AC SWAP2 SWAP1 PUSH2 0xC41 JUMP JUMPDEST PUSH1 0x40 MLOAD DUP1 SWAP2 SUB SWAP1 RETURN JUMPDEST PUSH2 0x1CF PUSH1 0x4 DUP1 CALLDATASIZE SUB DUP2 ADD SWAP1 PUSH2 0x1CA SWAP2 SWAP1 PUSH2 0xD91 JUMP JUMPDEST PUSH2 0x578 JUMP JUMPDEST STOP JUMPDEST PUSH2 0x1EB PUSH1 0x4 DUP1 CALLDATASIZE SUB DUP2 ADD SWAP1 PUSH2 0x1E6 SWAP2 SWAP1 PUSH2 0xE00 JUMP JUMPDEST PUSH2 0x588 JUMP JUMPDEST STOP JUMPDEST PUSH2 0x207 PUSH1 0x4 DUP1 CALLDATASIZE SUB DUP2 ADD SWAP1 PUSH2 0x202 SWAP2 SWAP1 PUSH2 0xE00 JUMP JUMPDEST PUSH2 0x596 JUMP JUMPDEST STOP JUMPDEST PUSH2 0x223 PUSH1 0x4 DUP1 CALLDATASIZE SUB DUP2 ADD SWAP1 PUSH2 0x21E SWAP2 SWAP1 PUSH2 0xE5C JUMP JUMPDEST PUSH2 0x5A5 JUMP JUMPDEST PUSH1 0x40 MLOAD PUSH2 0x233 SWAP5 SWAP4 SWAP3 SWAP2 SWAP1 PUSH2 0xE89 JUMP JUMPDEST PUSH1 0x40 MLOAD DUP1 SWAP2 SUB SWAP1 RETURN JUMPDEST PUSH2 0x256 PUSH1 0x4 DUP1 CALLDATASIZE SUB DUP2 ADD SWAP1 PUSH2 0x251 SWAP2 SWAP1 PUSH2 0xED5 JUMP JUMPDEST PUSH2 0x67D JUMP JUMPDEST STOP JUMPDEST PUSH2 0x272 PUSH1 0x4 DUP1 CALLDATASIZE SUB DUP2 ADD SWAP1 PUSH2 0x26D SWAP2 SWAP1 PUSH2 0xBF9 JUMP JUMPDEST PUSH2 0x68A JUMP JUMPDEST STOP JUMPDEST PUSH1 0x3 PUSH1 0x20 MSTORE DUP2 PUSH1 0x0 MSTORE PUSH1 0x40 PUSH1 0x0 KECCAK256 PUSH1 0x20 MSTORE DUP1 PUSH1 0x0 MSTORE PUSH1 0x40 PUSH1 0x0 KECCAK256 PUSH1 0x0 SWAP2 POP SWAP2 POP SWAP1 SLOAD SWAP1 PUSH2 0x100 EXP SWAP1 DIV PUSH1 0xFF AND DUP2 JUMP JUMPDEST PUSH1 0x2 PUSH1 0x20 MSTORE DUP2 PUSH1 0x0 MSTORE PUSH1 0x40 PUSH1 0x0 KECCAK256 DUP2 DUP2 SLOAD DUP2 LT PUSH2 0x2BF JUMPI PUSH1 0x0 DUP1 REVERT JUMPDEST SWAP1 PUSH1 0x0 MSTORE PUSH1 0x20 PUSH1 0x0 KECCAK256 SWAP1 PUSH1 0x5 MUL ADD PUSH1 0x0 SWAP2 POP SWAP2 POP POP DUP1 PUSH1 0x0 ADD SLOAD SWAP1 DUP1 PUSH1 0x1 ADD DUP1 SLOAD PUSH2 0x2E9 SWAP1 PUSH2 0xF4D JUMP JUMPDEST DUP1 PUSH1 0x1F ADD PUSH1 0x20 DUP1 SWAP2 DIV MUL PUSH1 0x20 ADD PUSH1 0x40 MLOAD SWAP1 DUP2 ADD PUSH1 0x40 MSTORE DUP1 SWAP3 SWAP2 SWAP1 DUP2 DUP2 MSTORE PUSH1 0x20 ADD DUP3 DUP1 SLOAD PUSH2 0x315 SWAP1 PUSH2 0xF4D JUMP JUMPDEST DUP1 ISZERO PUSH2 0x362 JUMPI DUP1 PUSH1 0x1F LT PUSH2 0x337 JUMPI PUSH2 0x100 DUP1 DUP4 SLOAD DIV MUL DUP4 MSTORE SWAP2 PUSH1 0x20 ADD SWAP2 PUSH2 0x362 JUMP JUMPDEST DUP3 ADD SWAP2 SWAP1 PUSH1 0x0 MSTORE PUSH1 0x20 PUSH1 0x0 KECCAK256 SWAP1 JUMPDEST DUP2 SLOAD DUP2 MSTORE SWAP1 PUSH1 0x1 ADD SWAP1 PUSH1 0x20 ADD DUP1 DUP4 GT PUSH2 0x345 JUMPI DUP3 SWAP1 SUB PUSH1 0x1F AND DUP3 ADD SWAP2 JUMPDEST POP POP POP POP POP SWAP1 DUP1 PUSH1 0x2 ADD PUSH1 0x0 SWAP1 SLOAD SWAP1 PUSH2 0x100 EXP SWAP1 DIV PUSH20 0xFFFFFFFFFFFFFFFFFFFFFFFFFFFFFFFFFFFFFFFF AND SWAP1 DUP1 PUSH1 0x3 ADD PUSH1 0x0 SWAP1 SLOAD SWAP1 PUSH2 0x100 EXP SWAP1 DIV PUSH20 0xFFFFFFFFFFFFFFFFFFFFFFFFFFFFFFFFFFFFFFFF AND SWAP1 DUP1 PUSH1 0x4 ADD SLOAD SWAP1 POP DUP6 JUMP JUMPDEST PUSH1 0x4 PUSH1 0x0 CALLER PUSH20 0xFFFFFFFFFFFFFFFFFFFFFFFFFFFFFFFFFFFFFFFF AND PUSH20 0xFFFFFFFFFFFFFFFFFFFFFFFFFFFFFFFFFFFFFFFF AND DUP2 MSTORE PUSH1 0x20 ADD SWAP1 DUP2 MSTORE PUSH1 0x20 ADD PUSH1 0x0 KECCAK256 DUP2 SWAP1 DUP1 PUSH1 0x1 DUP2 SLOAD ADD DUP1 DUP3 SSTORE DUP1 SWAP2 POP POP PUSH1 0x1 SWAP1 SUB SWAP1 PUSH1 0x0 MSTORE PUSH1 0x20 PUSH1 0x0 KECCAK256 ADD PUSH1 0x0 SWAP1 SWAP2 SWAP1 SWAP2 SWAP1 SWAP2 PUSH2 0x100 EXP DUP2 SLOAD DUP2 PUSH20 0xFFFFFFFFFFFFFFFFFFFFFFFFFFFFFFFFFFFFFFFF MUL NOT AND SWAP1 DUP4 PUSH20 0xFFFFFFFFFFFFFFFFFFFFFFFFFFFFFFFFFFFFFFFF AND MUL OR SWAP1 SSTORE POP POP JUMP JUMPDEST PUSH1 0x4 PUSH1 0x20 MSTORE DUP2 PUSH1 0x0 MSTORE PUSH1 0x40 PUSH1 0x0 KECCAK256 DUP2 DUP2 SLOAD DUP2 LT PUSH2 0x47D JUMPI PUSH1 0x0 DUP1 REVERT JUMPDEST SWAP1 PUSH1 0x0 MSTORE PUSH1 0x20 PUSH1 0x0 KECCAK256 ADD PUSH1 0x0 SWAP2 POP SWAP2 POP SWAP1 SLOAD SWAP1 PUSH2 0x100 EXP SWAP1 DIV PUSH20 0xFFFFFFFFFFFFFFFFFFFFFFFFFFFFFFFFFFFFFFFF AND DUP2 JUMP JUMPDEST PUSH1 0x0 PUSH1 0x3 PUSH1 0x0 CALLER PUSH20 0xFFFFFFFFFFFFFFFFFFFFFFFFFFFFFFFFFFFFFFFF AND PUSH20 0xFFFFFFFFFFFFFFFFFFFFFFFFFFFFFFFFFFFFFFFF AND DUP2 MSTORE PUSH1 0x20 ADD SWAP1 DUP2 MSTORE PUSH1 0x20 ADD PUSH1 0x0 KECCAK256 PUSH1 0x0 DUP4 PUSH20 0xFFFFFFFFFFFFFFFFFFFFFFFFFFFFFFFFFFFFFFFF AND PUSH20 0xFFFFFFFFFFFFFFFFFFFFFFFFFFFFFFFFFFFFFFFF AND DUP2 MSTORE PUSH1 0x20 ADD SWAP1 DUP2 MSTORE PUSH1 0x20 ADD PUSH1 0x0 KECCAK256 PUSH1 0x0 PUSH2 0x100 EXP DUP2 SLOAD DUP2 PUSH1 0xFF MUL NOT AND SWAP1 DUP4 ISZERO ISZERO MUL OR SWAP1 SSTORE POP POP JUMP JUMPDEST PUSH1 0x1 PUSH1 0x20 MSTORE DUP2 PUSH1 0x0 MSTORE PUSH1 0x40 PUSH1 0x0 KECCAK256 DUP2 DUP2 SLOAD DUP2 LT PUSH2 0x563 JUMPI PUSH1 0x0 DUP1 REVERT JUMPDEST SWAP1 PUSH1 0x0 MSTORE PUSH1 0x20 PUSH1 0x0 KECCAK256 ADD PUSH1 0x0 SWAP2 POP SWAP2 POP POP SLOAD DUP2 JUMP JUMPDEST PUSH2 0x583 DUP4 DUP4 DUP4 PUSH2 0x722 JUMP JUMPDEST POP POP POP JUMP JUMPDEST PUSH2 0x592 DUP3 DUP3 PUSH2 0x8B6 JUMP JUMPDEST POP POP JUMP JUMPDEST PUSH2 0x5A1 CALLER DUP4 DUP4 PUSH2 0x722 JUMP JUMPDEST POP POP JUMP JUMPDEST PUSH1 0x0 PUSH1 0x20 MSTORE DUP1 PUSH1 0x0 MSTORE PUSH1 0x40 PUSH1 0x0 KECCAK256 PUSH1 0x0 SWAP2 POP SWAP1 POP DUP1 PUSH1 0x0 ADD SLOAD SWAP1 DUP1 PUSH1 0x1 ADD PUSH1 0x0 SWAP1 SLOAD SWAP1 PUSH2 0x100 EXP SWAP1 DIV PUSH20 0xFFFFFFFFFFFFFFFFFFFFFFFFFFFFFFFFFFFFFFFF AND SWAP1 DUP1 PUSH1 0x2 ADD DUP1 SLOAD PUSH2 0x5F4 SWAP1 PUSH2 0xF4D JUMP JUMPDEST DUP1 PUSH1 0x1F ADD PUSH1 0x20 DUP1 SWAP2 DIV MUL PUSH1 0x20 ADD PUSH1 0x40 MLOAD SWAP1 DUP2 ADD PUSH1 0x40 MSTORE DUP1 SWAP3 SWAP2 SWAP1 DUP2 DUP2 MSTORE PUSH1 0x20 ADD DUP3 DUP1 SLOAD PUSH2 0x620 SWAP1 PUSH2 0xF4D JUMP JUMPDEST DUP1 ISZERO PUSH2 0x66D JUMPI DUP1 PUSH1 0x1F LT PUSH2 0x642 JUMPI PUSH2 0x100 DUP1 DUP4 SLOAD DIV MUL DUP4 MSTORE SWAP2 PUSH1 0x20 ADD SWAP2 PUSH2 0x66D JUMP JUMPDEST DUP3 ADD SWAP2 SWAP1 PUSH1 0x0 MSTORE PUSH1 0x20 PUSH1 0x0 KECCAK256 SWAP1 JUMPDEST DUP2 SLOAD DUP2 MSTORE SWAP1 PUSH1 0x1 ADD SWAP1 PUSH1 0x20 ADD DUP1 DUP4 GT PUSH2 0x650 JUMPI DUP3 SWAP1 SUB PUSH1 0x1F AND DUP3 ADD SWAP2 JUMPDEST POP POP POP POP POP SWAP1 DUP1 PUSH1 0x3 ADD SLOAD SWAP1 POP DUP5 JUMP JUMPDEST PUSH2 0x687 CALLER DUP3 PUSH2 0x8B6 JUMP JUMPDEST POP JUMP JUMPDEST PUSH1 0x1 PUSH1 0x3 PUSH1 0x0 CALLER PUSH20 0xFFFFFFFFFFFFFFFFFFFFFFFFFFFFFFFFFFFFFFFF AND PUSH20 0xFFFFFFFFFFFFFFFFFFFFFFFFFFFFFFFFFFFFFFFF AND DUP2 MSTORE PUSH1 0x20 ADD SWAP1 DUP2 MSTORE PUSH1 0x20 ADD PUSH1 0x0 KECCAK256 PUSH1 0x0 DUP4 PUSH20 0xFFFFFFFFFFFFFFFFFFFFFFFFFFFFFFFFFFFFFFFF AND PUSH20 0xFFFFFFFFFFFFFFFFFFFFFFFFFFFFFFFFFFFFFFFF AND DUP2 MSTORE PUSH1 0x20 ADD SWAP1 DUP2 MSTORE PUSH1 0x20 ADD PUSH1 0x0 KECCAK256 PUSH1 0x0 PUSH2 0x100 EXP DUP2 SLOAD DUP2 PUSH1 0xFF MUL NOT AND SWAP1 DUP4 ISZERO ISZERO MUL OR SWAP1 SSTORE POP POP JUMP JUMPDEST PUSH1 0x2 PUSH1 0x0 DUP5 PUSH20 0xFFFFFFFFFFFFFFFFFFFFFFFFFFFFFFFFFFFFFFFF AND PUSH20 0xFFFFFFFFFFFFFFFFFFFFFFFFFFFFFFFFFFFFFFFF AND DUP2 MSTORE PUSH1 0x20 ADD SWAP1 DUP2 MSTORE PUSH1 0x20 ADD PUSH1 0x0 KECCAK256 PUSH1 0x40 MLOAD DUP1 PUSH1 0xA0 ADD PUSH1 0x40 MSTORE DUP1 PUSH1 0x6 SLOAD DUP2 MSTORE PUSH1 0x20 ADD DUP4 DUP2 MSTORE PUSH1 0x20 ADD DUP6 PUSH20 0xFFFFFFFFFFFFFFFFFFFFFFFFFFFFFFFFFFFFFFFF AND DUP2 MSTORE PUSH1 0x20 ADD DUP5 PUSH20 0xFFFFFFFFFFFFFFFFFFFFFFFFFFFFFFFFFFFFFFFF AND DUP2 MSTORE PUSH1 0x20 ADD TIMESTAMP DUP2 MSTORE POP SWAP1 DUP1 PUSH1 0x1 DUP2 SLOAD ADD DUP1 DUP3 SSTORE DUP1 SWAP2 POP POP PUSH1 0x1 SWAP1 SUB SWAP1 PUSH1 0x0 MSTORE PUSH1 0x20 PUSH1 0x0 KECCAK256 SWAP1 PUSH1 0x5 MUL ADD PUSH1 0x0 SWAP1 SWAP2 SWAP1 SWAP2 SWAP1 SWAP2 POP PUSH1 0x0 DUP3 ADD MLOAD DUP2 PUSH1 0x0 ADD SSTORE PUSH1 0x20 DUP3 ADD MLOAD DUP2 PUSH1 0x1 ADD SWAP1 DUP2 PUSH2 0x7FE SWAP2 SWAP1 PUSH2 0x112A JUMP JUMPDEST POP PUSH1 0x40 DUP3 ADD MLOAD DUP2 PUSH1 0x2 ADD PUSH1 0x0 PUSH2 0x100 EXP DUP2 SLOAD DUP2 PUSH20 0xFFFFFFFFFFFFFFFFFFFFFFFFFFFFFFFFFFFFFFFF MUL NOT AND SWAP1 DUP4 PUSH20 0xFFFFFFFFFFFFFFFFFFFFFFFFFFFFFFFFFFFFFFFF AND MUL OR SWAP1 SSTORE POP PUSH1 0x60 DUP3 ADD MLOAD DUP2 PUSH1 0x3 ADD PUSH1 0x0 PUSH2 0x100 EXP DUP2 SLOAD DUP2 PUSH20 0xFFFFFFFFFFFFFFFFFFFFFFFFFFFFFFFFFFFFFFFF MUL NOT AND SWAP1 DUP4 PUSH20 0xFFFFFFFFFFFFFFFFFFFFFFFFFFFFFFFFFFFFFFFF AND MUL OR SWAP1 SSTORE POP PUSH1 0x80 DUP3 ADD MLOAD DUP2 PUSH1 0x4 ADD SSTORE POP POP PUSH1 0x6 PUSH1 0x0 DUP2 SLOAD DUP1 SWAP3 SWAP2 SWAP1 PUSH2 0x8AC SWAP1 PUSH2 0x122B JUMP JUMPDEST SWAP2 SWAP1 POP SSTORE POP POP POP POP JUMP JUMPDEST PUSH1 0x40 MLOAD DUP1 PUSH1 0x80 ADD PUSH1 0x40 MSTORE DUP1 PUSH1 0x5 SLOAD DUP2 MSTORE PUSH1 0x20 ADD DUP4 PUSH20 0xFFFFFFFFFFFFFFFFFFFFFFFFFFFFFFFFFFFFFFFF AND DUP2 MSTORE PUSH1 0x20 ADD DUP3 DUP2 MSTORE PUSH1 0x20 ADD TIMESTAMP DUP2 MSTORE POP PUSH1 0x0 DUP1 PUSH1 0x5 SLOAD DUP2 MSTORE PUSH1 0x20 ADD SWAP1 DUP2 MSTORE PUSH1 0x20 ADD PUSH1 0x0 KECCAK256 PUSH1 0x0 DUP3 ADD MLOAD DUP2 PUSH1 0x0 ADD SSTORE PUSH1 0x20 DUP3 ADD MLOAD DUP2 PUSH1 0x1 ADD PUSH1 0x0 PUSH2 0x100 EXP DUP2 SLOAD DUP2 PUSH20 0xFFFFFFFFFFFFFFFFFFFFFFFFFFFFFFFFFFFFFFFF MUL NOT AND SWAP1 DUP4 PUSH20 0xFFFFFFFFFFFFFFFFFFFFFFFFFFFFFFFFFFFFFFFF AND MUL OR SWAP1 SSTORE POP PUSH1 0x40 DUP3 ADD MLOAD DUP2 PUSH1 0x2 ADD SWAP1 DUP2 PUSH2 0x969 SWAP2 SWAP1 PUSH2 0x112A JUMP JUMPDEST POP PUSH1 0x60 DUP3 ADD MLOAD DUP2 PUSH1 0x3 ADD SSTORE SWAP1 POP POP PUSH1 0x5 PUSH1 0x0 DUP2 SLOAD DUP1 SWAP3 SWAP2 SWAP1 PUSH2 0x98A SWAP1 PUSH2 0x122B JUMP JUMPDEST SWAP2 SWAP1 POP SSTORE POP POP POP JUMP JUMPDEST PUSH1 0x0 PUSH1 0x40 MLOAD SWAP1 POP SWAP1 JUMP JUMPDEST PUSH1 0x0 DUP1 REVERT JUMPDEST PUSH1 0x0 DUP1 REVERT JUMPDEST PUSH1 0x0 PUSH20 0xFFFFFFFFFFFFFFFFFFFFFFFFFFFFFFFFFFFFFFFF DUP3 AND SWAP1 POP SWAP2 SWAP1 POP JUMP JUMPDEST PUSH1 0x0 PUSH2 0x9D2 DUP3 PUSH2 0x9A7 JUMP JUMPDEST SWAP1 POP SWAP2 SWAP1 POP JUMP JUMPDEST PUSH2 0x9E2 DUP2 PUSH2 0x9C7 JUMP JUMPDEST DUP2 EQ PUSH2 0x9ED JUMPI PUSH1 0x0 DUP1 REVERT JUMPDEST POP JUMP JUMPDEST PUSH1 0x0 DUP2 CALLDATALOAD SWAP1 POP PUSH2 0x9FF DUP2 PUSH2 0x9D9 JUMP JUMPDEST SWAP3 SWAP2 POP POP JUMP JUMPDEST PUSH1 0x0 DUP1 PUSH1 0x40 DUP4 DUP6 SUB SLT ISZERO PUSH2 0xA1C JUMPI PUSH2 0xA1B PUSH2 0x99D JUMP JUMPDEST JUMPDEST PUSH1 0x0 PUSH2 0xA2A DUP6 DUP3 DUP7 ADD PUSH2 0x9F0 JUMP JUMPDEST SWAP3 POP POP PUSH1 0x20 PUSH2 0xA3B DUP6 DUP3 DUP7 ADD PUSH2 0x9F0 JUMP JUMPDEST SWAP2 POP POP SWAP3 POP SWAP3 SWAP1 POP JUMP JUMPDEST PUSH1 0x0 DUP2 ISZERO ISZERO SWAP1 POP SWAP2 SWAP1 POP JUMP JUMPDEST PUSH2 0xA5A DUP2 PUSH2 0xA45 JUMP JUMPDEST DUP3 MSTORE POP POP JUMP JUMPDEST PUSH1 0x0 PUSH1 0x20 DUP3 ADD SWAP1 POP PUSH2 0xA75 PUSH1 0x0 DUP4 ADD DUP5 PUSH2 0xA51 JUMP JUMPDEST SWAP3 SWAP2 POP POP JUMP JUMPDEST PUSH1 0x0 DUP2 SWAP1 POP SWAP2 SWAP1 POP JUMP JUMPDEST PUSH2 0xA8E DUP2 PUSH2 0xA7B JUMP JUMPDEST DUP2 EQ PUSH2 0xA99 JUMPI PUSH1 0x0 DUP1 REVERT JUMPDEST POP JUMP JUMPDEST PUSH1 0x0 DUP2 CALLDATALOAD SWAP1 POP PUSH2 0xAAB DUP2 PUSH2 0xA85 JUMP JUMPDEST SWAP3 SWAP2 POP POP JUMP JUMPDEST PUSH1 0x0 DUP1 PUSH1 0x40 DUP4 DUP6 SUB SLT ISZERO PUSH2 0xAC8 JUMPI PUSH2 0xAC7 PUSH2 0x99D JUMP JUMPDEST JUMPDEST PUSH1 0x0 PUSH2 0xAD6 DUP6 DUP3 DUP7 ADD PUSH2 0x9F0 JUMP JUMPDEST SWAP3 POP POP PUSH1 0x20 PUSH2 0xAE7 DUP6 DUP3 DUP7 ADD PUSH2 0xA9C JUMP JUMPDEST SWAP2 POP POP SWAP3 POP SWAP3 SWAP1 POP JUMP JUMPDEST PUSH2 0xAFA DUP2 PUSH2 0xA7B JUMP JUMPDEST DUP3 MSTORE POP POP JUMP JUMPDEST PUSH1 0x0 DUP2 MLOAD SWAP1 POP SWAP2 SWAP1 POP JUMP JUMPDEST PUSH1 0x0 DUP3 DUP3 MSTORE PUSH1 0x20 DUP3 ADD SWAP1 POP SWAP3 SWAP2 POP POP JUMP JUMPDEST PUSH1 0x0 JUMPDEST DUP4 DUP2 LT ISZERO PUSH2 0xB3A JUMPI DUP1 DUP3 ADD MLOAD DUP2 DUP5 ADD MSTORE PUSH1 0x20 DUP2 ADD SWAP1 POP PUSH2 0xB1F JUMP JUMPDEST PUSH1 0x0 DUP5 DUP5 ADD MSTORE POP POP POP POP JUMP JUMPDEST PUSH1 0x0 PUSH1 0x1F NOT PUSH1 0x1F DUP4 ADD AND SWAP1 POP SWAP2 SWAP1 POP JUMP JUMPDEST PUSH1 0x0 PUSH2 0xB62 DUP3 PUSH2 0xB00 JUMP JUMPDEST PUSH2 0xB6C DUP2 DUP6 PUSH2 0xB0B JUMP JUMPDEST SWAP4 POP PUSH2 0xB7C DUP2 DUP6 PUSH1 0x20 DUP7 ADD PUSH2 0xB1C JUMP JUMPDEST PUSH2 0xB85 DUP2 PUSH2 0xB46 JUMP JUMPDEST DUP5 ADD SWAP2 POP POP SWAP3 SWAP2 POP POP JUMP JUMPDEST PUSH2 0xB99 DUP2 PUSH2 0x9C7 JUMP JUMPDEST DUP3 MSTORE POP POP JUMP JUMPDEST PUSH1 0x0 PUSH1 0xA0 DUP3 ADD SWAP1 POP PUSH2 0xBB4 PUSH1 0x0 DUP4 ADD DUP9 PUSH2 0xAF1 JUMP JUMPDEST DUP2 DUP2 SUB PUSH1 0x20 DUP4 ADD MSTORE PUSH2 0xBC6 DUP2 DUP8 PUSH2 0xB57 JUMP JUMPDEST SWAP1 POP PUSH2 0xBD5 PUSH1 0x40 DUP4 ADD DUP7 PUSH2 0xB90 JUMP JUMPDEST PUSH2 0xBE2 PUSH1 0x60 DUP4 ADD DUP6 PUSH2 0xB90 JUMP JUMPDEST PUSH2 0xBEF PUSH1 0x80 DUP4 ADD DUP5 PUSH2 0xAF1 JUMP JUMPDEST SWAP7 SWAP6 POP POP POP POP POP POP JUMP JUMPDEST PUSH1 0x0 PUSH1 0x20 DUP3 DUP5 SUB SLT ISZERO PUSH2 0xC0F JUMPI PUSH2 0xC0E PUSH2 0x99D JUMP JUMPDEST JUMPDEST PUSH1 0x0 PUSH2 0xC1D DUP5 DUP3 DUP6 ADD PUSH2 0x9F0 JUMP JUMPDEST SWAP2 POP POP SWAP3 SWAP2 POP POP JUMP JUMPDEST PUSH1 0x0 PUSH1 0x20 DUP3 ADD SWAP1 POP PUSH2 0xC3B PUSH1 0x0 DUP4 ADD DUP5 PUSH2 0xB90 JUMP JUMPDEST SWAP3 SWAP2 POP POP JUMP JUMPDEST PUSH1 0x0 PUSH1 0x20 DUP3 ADD SWAP1 POP PUSH2 0xC56 PUSH1 0x0 DUP4 ADD DUP5 PUSH2 0xAF1 JUMP JUMPDEST SWAP3 SWAP2 POP POP JUMP JUMPDEST PUSH1 0x0 DUP1 REVERT JUMPDEST PUSH1 0x0 DUP1 REVERT JUMPDEST PUSH32 0x4E487B7100000000000000000000000000000000000000000000000000000000 PUSH1 0x0 MSTORE PUSH1 0x41 PUSH1 0x4 MSTORE PUSH1 0x24 PUSH1 0x0 REVERT JUMPDEST PUSH2 0xC9E DUP3 PUSH2 0xB46 JUMP JUMPDEST DUP2 ADD DUP2 DUP2 LT PUSH8 0xFFFFFFFFFFFFFFFF DUP3 GT OR ISZERO PUSH2 0xCBD JUMPI PUSH2 0xCBC PUSH2 0xC66 JUMP JUMPDEST JUMPDEST DUP1 PUSH1 0x40 MSTORE POP POP POP JUMP JUMPDEST PUSH1 0x0 PUSH2 0xCD0 PUSH2 0x993 JUMP JUMPDEST SWAP1 POP PUSH2 0xCDC DUP3 DUP3 PUSH2 0xC95 JUMP JUMPDEST SWAP2 SWAP1 POP JUMP JUMPDEST PUSH1 0x0 PUSH8 0xFFFFFFFFFFFFFFFF DUP3 GT ISZERO PUSH2 0xCFC JUMPI PUSH2 0xCFB PUSH2 0xC66 JUMP JUMPDEST JUMPDEST PUSH2 0xD05 DUP3 PUSH2 0xB46 JUMP JUMPDEST SWAP1 POP PUSH1 0x20 DUP2 ADD SWAP1 POP SWAP2 SWAP1 POP JUMP JUMPDEST DUP3 DUP2 DUP4 CALLDATACOPY PUSH1 0x0 DUP4 DUP4 ADD MSTORE POP POP POP JUMP JUMPDEST PUSH1 0x0 PUSH2 0xD34 PUSH2 0xD2F DUP5 PUSH2 0xCE1 JUMP JUMPDEST PUSH2 0xCC6 JUMP JUMPDEST SWAP1 POP DUP3 DUP2 MSTORE PUSH1 0x20 DUP2 ADD DUP5 DUP5 DUP5 ADD GT ISZERO PUSH2 0xD50 JUMPI PUSH2 0xD4F PUSH2 0xC61 JUMP JUMPDEST JUMPDEST PUSH2 0xD5B DUP5 DUP3 DUP6 PUSH2 0xD12 JUMP JUMPDEST POP SWAP4 SWAP3 POP POP POP JUMP JUMPDEST PUSH1 0x0 DUP3 PUSH1 0x1F DUP4 ADD SLT PUSH2 0xD78 JUMPI PUSH2 0xD77 PUSH2 0xC5C JUMP JUMPDEST JUMPDEST DUP2 CALLDATALOAD PUSH2 0xD88 DUP5 DUP3 PUSH1 0x20 DUP7 ADD PUSH2 0xD21 JUMP JUMPDEST SWAP2 POP POP SWAP3 SWAP2 POP POP JUMP JUMPDEST PUSH1 0x0 DUP1 PUSH1 0x0 PUSH1 0x60 DUP5 DUP7 SUB SLT ISZERO PUSH2 0xDAA JUMPI PUSH2 0xDA9 PUSH2 0x99D JUMP JUMPDEST JUMPDEST PUSH1 0x0 PUSH2 0xDB8 DUP7 DUP3 DUP8 ADD PUSH2 0x9F0 JUMP JUMPDEST SWAP4 POP POP PUSH1 0x20 PUSH2 0xDC9 DUP7 DUP3 DUP8 ADD PUSH2 0x9F0 JUMP JUMPDEST SWAP3 POP POP PUSH1 0x40 DUP5 ADD CALLDATALOAD PUSH8 0xFFFFFFFFFFFFFFFF DUP2 GT ISZERO PUSH2 0xDEA JUMPI PUSH2 0xDE9 PUSH2 0x9A2 JUMP JUMPDEST JUMPDEST PUSH2 0xDF6 DUP7 DUP3 DUP8 ADD PUSH2 0xD63 JUMP JUMPDEST SWAP2 POP POP SWAP3 POP SWAP3 POP SWAP3 JUMP JUMPDEST PUSH1 0x0 DUP1 PUSH1 0x40 DUP4 DUP6 SUB SLT ISZERO PUSH2 0xE17 JUMPI PUSH2 0xE16 PUSH2 0x99D JUMP JUMPDEST JUMPDEST PUSH1 0x0 PUSH2 0xE25 DUP6 DUP3 DUP7 ADD PUSH2 0x9F0 JUMP JUMPDEST SWAP3 POP POP PUSH1 0x20 DUP4 ADD CALLDATALOAD PUSH8 0xFFFFFFFFFFFFFFFF DUP2 GT ISZERO PUSH2 0xE46 JUMPI PUSH2 0xE45 PUSH2 0x9A2 JUMP JUMPDEST JUMPDEST PUSH2 0xE52 DUP6 DUP3 DUP7 ADD PUSH2 0xD63 JUMP JUMPDEST SWAP2 POP POP SWAP3 POP SWAP3 SWAP1 POP JUMP JUMPDEST PUSH1 0x0 PUSH1 0x20 DUP3 DUP5 SUB SLT ISZERO PUSH2 0xE72 JUMPI PUSH2 0xE71 PUSH2 0x99D JUMP JUMPDEST JUMPDEST PUSH1 0x0 PUSH2 0xE80 DUP5 DUP3 DUP6 ADD PUSH2 0xA9C JUMP JUMPDEST SWAP2 POP POP SWAP3 SWAP2 POP POP JUMP JUMPDEST PUSH1 0x0 PUSH1 0x80 DUP3 ADD SWAP1 POP PUSH2 0xE9E PUSH1 0x0 DUP4 ADD DUP8 PUSH2 0xAF1 JUMP JUMPDEST PUSH2 0xEAB PUSH1 0x20 DUP4 ADD DUP7 PUSH2 0xB90 JUMP JUMPDEST DUP2 DUP2 SUB PUSH1 0x40 DUP4 ADD MSTORE PUSH2 0xEBD DUP2 DUP6 PUSH2 0xB57 JUMP JUMPDEST SWAP1 POP PUSH2 0xECC PUSH1 0x60 DUP4 ADD DUP5 PUSH2 0xAF1 JUMP JUMPDEST SWAP6 SWAP5 POP POP POP POP POP JUMP JUMPDEST PUSH1 0x0 PUSH1 0x20 DUP3 DUP5 SUB SLT ISZERO PUSH2 0xEEB JUMPI PUSH2 0xEEA PUSH2 0x99D JUMP JUMPDEST JUMPDEST PUSH1 0x0 DUP3 ADD CALLDATALOAD PUSH8 0xFFFFFFFFFFFFFFFF DUP2 GT ISZERO PUSH2 0xF09 JUMPI PUSH2 0xF08 PUSH2 0x9A2 JUMP JUMPDEST JUMPDEST PUSH2 0xF15 DUP5 DUP3 DUP6 ADD PUSH2 0xD63 JUMP JUMPDEST SWAP2 POP POP SWAP3 SWAP2 POP POP JUMP JUMPDEST PUSH32 0x4E487B7100000000000000000000000000000000000000000000000000000000 PUSH1 0x0 MSTORE PUSH1 0x22 PUSH1 0x4 MSTORE PUSH1 0x24 PUSH1 0x0 REVERT JUMPDEST PUSH1 0x0 PUSH1 0x2 DUP3 DIV SWAP1 POP PUSH1 0x1 DUP3 AND DUP1 PUSH2 0xF65 JUMPI PUSH1 0x7F DUP3 AND SWAP2 POP JUMPDEST PUSH1 0x20 DUP3 LT DUP2 SUB PUSH2 0xF78 JUMPI PUSH2 0xF77 PUSH2 0xF1E JUMP JUMPDEST JUMPDEST POP SWAP2 SWAP1 POP JUMP JUMPDEST PUSH1 0x0 DUP2 SWAP1 POP DUP2 PUSH1 0x0 MSTORE PUSH1 0x20 PUSH1 0x0 KECCAK256 SWAP1 POP SWAP2 SWAP1 POP JUMP JUMPDEST PUSH1 0x0 PUSH1 0x20 PUSH1 0x1F DUP4 ADD DIV SWAP1 POP SWAP2 SWAP1 POP JUMP JUMPDEST PUSH1 0x0 DUP3 DUP3 SHL SWAP1 POP SWAP3 SWAP2 POP POP JUMP JUMPDEST PUSH1 0x0 PUSH1 0x8 DUP4 MUL PUSH2 0xFE0 PUSH32 0xFFFFFFFFFFFFFFFFFFFFFFFFFFFFFFFFFFFFFFFFFFFFFFFFFFFFFFFFFFFFFFFF DUP3 PUSH2 0xFA3 JUMP JUMPDEST PUSH2 0xFEA DUP7 DUP4 PUSH2 0xFA3 JUMP JUMPDEST SWAP6 POP DUP1 NOT DUP5 AND SWAP4 POP DUP1 DUP7 AND DUP5 OR SWAP3 POP POP POP SWAP4 SWAP3 POP POP POP JUMP JUMPDEST PUSH1 0x0 DUP2 SWAP1 POP SWAP2 SWAP1 POP JUMP JUMPDEST PUSH1 0x0 PUSH2 0x1027 PUSH2 0x1022 PUSH2 0x101D DUP5 PUSH2 0xA7B JUMP JUMPDEST PUSH2 0x1002 JUMP JUMPDEST PUSH2 0xA7B JUMP JUMPDEST SWAP1 POP SWAP2 SWAP1 POP JUMP JUMPDEST PUSH1 0x0 DUP2 SWAP1 POP SWAP2 SWAP1 POP JUMP JUMPDEST PUSH2 0x1041 DUP4 PUSH2 0x100C JUMP JUMPDEST PUSH2 0x1055 PUSH2 0x104D DUP3 PUSH2 0x102E JUMP JUMPDEST DUP5 DUP5 SLOAD PUSH2 0xFB0 JUMP JUMPDEST DUP3 SSTORE POP POP POP POP JUMP JUMPDEST PUSH1 0x0 SWAP1 JUMP JUMPDEST PUSH2 0x106A PUSH2 0x105D JUMP JUMPDEST PUSH2 0x1075 DUP2 DUP5 DUP5 PUSH2 0x1038 JUMP JUMPDEST POP POP POP JUMP JUMPDEST JUMPDEST DUP2 DUP2 LT ISZERO PUSH2 0x1099 JUMPI PUSH2 0x108E PUSH1 0x0 DUP3 PUSH2 0x1062 JUMP JUMPDEST PUSH1 0x1 DUP2 ADD SWAP1 POP PUSH2 0x107B JUMP JUMPDEST POP POP JUMP JUMPDEST PUSH1 0x1F DUP3 GT ISZERO PUSH2 0x10DE JUMPI PUSH2 0x10AF DUP2 PUSH2 0xF7E JUMP JUMPDEST PUSH2 0x10B8 DUP5 PUSH2 0xF93 JUMP JUMPDEST DUP2 ADD PUSH1 0x20 DUP6 LT ISZERO PUSH2 0x10C7 JUMPI DUP2 SWAP1 POP JUMPDEST PUSH2 0x10DB PUSH2 0x10D3 DUP6 PUSH2 0xF93 JUMP JUMPDEST DUP4 ADD DUP3 PUSH2 0x107A JUMP JUMPDEST POP POP JUMPDEST POP POP POP JUMP JUMPDEST PUSH1 0x0 DUP3 DUP3 SHR SWAP1 POP SWAP3 SWAP2 POP POP JUMP JUMPDEST PUSH1 0x0 PUSH2 0x1101 PUSH1 0x0 NOT DUP5 PUSH1 0x8 MUL PUSH2 0x10E3 JUMP JUMPDEST NOT DUP1 DUP4 AND SWAP2 POP POP SWAP3 SWAP2 POP POP JUMP JUMPDEST PUSH1 0x0 PUSH2 0x111A DUP4 DUP4 PUSH2 0x10F0 JUMP JUMPDEST SWAP2 POP DUP3 PUSH1 0x2 MUL DUP3 OR SWAP1 POP SWAP3 SWAP2 POP POP JUMP JUMPDEST PUSH2 0x1133 DUP3 PUSH2 0xB00 JUMP JUMPDEST PUSH8 0xFFFFFFFFFFFFFFFF DUP2 GT ISZERO PUSH2 0x114C JUMPI PUSH2 0x114B PUSH2 0xC66 JUMP JUMPDEST JUMPDEST PUSH2 0x1156 DUP3 SLOAD PUSH2 0xF4D JUMP JUMPDEST PUSH2 0x1161 DUP3 DUP3 DUP6 PUSH2 0x109D JUMP JUMPDEST PUSH1 0x0 PUSH1 0x20 SWAP1 POP PUSH1 0x1F DUP4 GT PUSH1 0x1 DUP2 EQ PUSH2 0x1194 JUMPI PUSH1 0x0 DUP5 ISZERO PUSH2 0x1182 JUMPI DUP3 DUP8 ADD MLOAD SWAP1 POP JUMPDEST PUSH2 0x118C DUP6 DUP3 PUSH2 0x110E JUMP JUMPDEST DUP7 SSTORE POP PUSH2 0x11F4 JUMP JUMPDEST PUSH1 0x1F NOT DUP5 AND PUSH2 0x11A2 DUP7 PUSH2 0xF7E JUMP JUMPDEST PUSH1 0x0 JUMPDEST DUP3 DUP2 LT ISZERO PUSH2 0x11CA JUMPI DUP5 DUP10 ADD MLOAD DUP3 SSTORE PUSH1 0x1 DUP3 ADD SWAP2 POP PUSH1 0x20 DUP6 ADD SWAP5 POP PUSH1 0x20 DUP2 ADD SWAP1 POP PUSH2 0x11A5 JUMP JUMPDEST DUP7 DUP4 LT ISZERO PUSH2 0x11E7 JUMPI DUP5 DUP10 ADD MLOAD PUSH2 0x11E3 PUSH1 0x1F DUP10 AND DUP3 PUSH2 0x10F0 JUMP JUMPDEST DUP4 SSTORE POP JUMPDEST PUSH1 0x1 PUSH1 0x2 DUP9 MUL ADD DUP9 SSTORE POP POP POP JUMPDEST POP POP POP POP POP POP JUMP JUMPDEST PUSH32 0x4E487B7100000000000000000000000000000000000000000000000000000000 PUSH1 0x0 MSTORE PUSH1 0x11 PUSH1 0x4 MSTORE PUSH1 0x24 PUSH1 0x0 REVERT JUMPDEST PUSH1 0x0 PUSH2 0x1236 DUP3 PUSH2 0xA7B JUMP JUMPDEST SWAP2 POP PUSH32 0xFFFFFFFFFFFFFFFFFFFFFFFFFFFFFFFFFFFFFFFFFFFFFFFFFFFFFFFFFFFFFFFF DUP3 SUB PUSH2 0x1268 JUMPI PUSH2 0x1267 PUSH2 0x11FC JUMP JUMPDEST JUMPDEST PUSH1 0x1 DUP3 ADD SWAP1 POP SWAP2 SWAP1 POP JUMP INVALID LOG2 PUSH5 0x6970667358 0x22 SLT KECCAK256 PUSH15 0xDE2B84C497419A302EA6078CA0D3F1 GT 0xF7 OR 0xFC 0xB7 0xCF 0xAC EXP SWAP7 SUB SWAP16 GAS 0xD0 0x1F 0xE8 0xAA PUSH5 0x736F6C6343 STOP ADDMOD SLT STOP CALLER "
				},
				"gasEstimates": {
					"creation": {
						"codeDepositCost": "955400",
						"executionCost": "994",
						"totalCost": "956394"
					},
					"external": {
						"allow(address)": "25011",
						"conversations(address,uint256)": "infinite",
						"disallow(address)": "24990",
						"follow(address)": "49168",
						"following(address,uint256)": "infinite",
						"operators(address,address)": "infinite",
						"sendMessage(address,address,string)": "infinite",
						"sendMessage(address,string)": "infinite",
						"tweet(address,string)": "infinite",
						"tweet(string)": "infinite",
						"tweets(uint256)": "infinite",
						"tweetsOf(address,uint256)": "infinite"
					},
					"internal": {
						"_sendMessage(address,address,string memory)": "infinite",
						"_tweet(address,string memory)": "infinite"
					}
				},
				"methodIdentifiers": {
					"allow(address)": "ff9913e8",
					"conversations(address,uint256)": "3befea09",
					"disallow(address)": "a9ed9cb8",
					"follow(address)": "4dbf27cc",
					"following(address,uint256)": "9139cda5",
					"operators(address,address)": "2637588e",
					"sendMessage(address,address,string)": "b88e318d",
					"sendMessage(address,string)": "de6f24bb",
					"tweet(address,string)": "d21d1596",
					"tweet(string)": "fb46d4c5",
					"tweets(uint256)": "e8d857b0",
					"tweetsOf(address,uint256)": "af22bf94"
				}
			},
			"storageLayout": {
				"storage": [
					{
						"astId": 26,
						"contract": "twitter.sol:TweetContract",
						"label": "tweets",
						"offset": 0,
						"slot": "0",
						"type": "t_mapping(t_uint256,t_struct(Tweet)10_storage)"
					},
					{
						"astId": 31,
						"contract": "twitter.sol:TweetContract",
						"label": "tweetsOf",
						"offset": 0,
						"slot": "1",
						"type": "t_mapping(t_address,t_array(t_uint256)dyn_storage)"
					},
					{
						"astId": 37,
						"contract": "twitter.sol:TweetContract",
						"label": "conversations",
						"offset": 0,
						"slot": "2",
						"type": "t_mapping(t_address,t_array(t_struct(Message)21_storage)dyn_storage)"
					},
					{
						"astId": 43,
						"contract": "twitter.sol:TweetContract",
						"label": "operators",
						"offset": 0,
						"slot": "3",
						"type": "t_mapping(t_address,t_mapping(t_address,t_bool))"
					},
					{
						"astId": 48,
						"contract": "twitter.sol:TweetContract",
						"label": "following",
						"offset": 0,
						"slot": "4",
						"type": "t_mapping(t_address,t_array(t_address)dyn_storage)"
					},
					{
						"astId": 50,
						"contract": "twitter.sol:TweetContract",
						"label": "nextId",
						"offset": 0,
						"slot": "5",
						"type": "t_uint256"
					},
					{
						"astId": 52,
						"contract": "twitter.sol:TweetContract",
						"label": "nextMessageId",
						"offset": 0,
						"slot": "6",
						"type": "t_uint256"
					}
				],
				"types": {
					"t_address": {
						"encoding": "inplace",
						"label": "address",
						"numberOfBytes": "20"
					},
					"t_array(t_address)dyn_storage": {
						"base": "t_address",
						"encoding": "dynamic_array",
						"label": "address[]",
						"numberOfBytes": "32"
					},
					"t_array(t_struct(Message)21_storage)dyn_storage": {
						"base": "t_struct(Message)21_storage",
						"encoding": "dynamic_array",
						"label": "struct TweetContract.Message[]",
						"numberOfBytes": "32"
					},
					"t_array(t_uint256)dyn_storage": {
						"base": "t_uint256",
						"encoding": "dynamic_array",
						"label": "uint256[]",
						"numberOfBytes": "32"
					},
					"t_bool": {
						"encoding": "inplace",
						"label": "bool",
						"numberOfBytes": "1"
					},
					"t_mapping(t_address,t_array(t_address)dyn_storage)": {
						"encoding": "mapping",
						"key": "t_address",
						"label": "mapping(address => address[])",
						"numberOfBytes": "32",
						"value": "t_array(t_address)dyn_storage"
					},
					"t_mapping(t_address,t_array(t_struct(Message)21_storage)dyn_storage)": {
						"encoding": "mapping",
						"key": "t_address",
						"label": "mapping(address => struct TweetContract.Message[])",
						"numberOfBytes": "32",
						"value": "t_array(t_struct(Message)21_storage)dyn_storage"
					},
					"t_mapping(t_address,t_array(t_uint256)dyn_storage)": {
						"encoding": "mapping",
						"key": "t_address",
						"label": "mapping(address => uint256[])",
						"numberOfBytes": "32",
						"value": "t_array(t_uint256)dyn_storage"
					},
					"t_mapping(t_address,t_bool)": {
						"encoding": "mapping",
						"key": "t_address",
						"label": "mapping(address => bool)",
						"numberOfBytes": "32",
						"value": "t_bool"
					},
					"t_mapping(t_address,t_mapping(t_address,t_bool))": {
						"encoding": "mapping",
						"key": "t_address",
						"label": "mapping(address => mapping(address => bool))",
						"numberOfBytes": "32",
						"value": "t_mapping(t_address,t_bool)"
					},
					"t_mapping(t_uint256,t_struct(Tweet)10_storage)": {
						"encoding": "mapping",
						"key": "t_uint256",
						"label": "mapping(uint256 => struct TweetContract.Tweet)",
						"numberOfBytes": "32",
						"value": "t_struct(Tweet)10_storage"
					},
					"t_string_storage": {
						"encoding": "bytes",
						"label": "string",
						"numberOfBytes": "32"
					},
					"t_struct(Message)21_storage": {
						"encoding": "inplace",
						"label": "struct TweetContract.Message",
						"members": [
							{
								"astId": 12,
								"contract": "twitter.sol:TweetContract",
								"label": "id",
								"offset": 0,
								"slot": "0",
								"type": "t_uint256"
							},
							{
								"astId": 14,
								"contract": "twitter.sol:TweetContract",
								"label": "content",
								"offset": 0,
								"slot": "1",
								"type": "t_string_storage"
							},
							{
								"astId": 16,
								"contract": "twitter.sol:TweetContract",
								"label": "from",
								"offset": 0,
								"slot": "2",
								"type": "t_address"
							},
							{
								"astId": 18,
								"contract": "twitter.sol:TweetContract",
								"label": "to",
								"offset": 0,
								"slot": "3",
								"type": "t_address"
							},
							{
								"astId": 20,
								"contract": "twitter.sol:TweetContract",
								"label": "createdAt",
								"offset": 0,
								"slot": "4",
								"type": "t_uint256"
							}
						],
						"numberOfBytes": "160"
					},
					"t_struct(Tweet)10_storage": {
						"encoding": "inplace",
						"label": "struct TweetContract.Tweet",
						"members": [
							{
								"astId": 3,
								"contract": "twitter.sol:TweetContract",
								"label": "id",
								"offset": 0,
								"slot": "0",
								"type": "t_uint256"
							},
							{
								"astId": 5,
								"contract": "twitter.sol:TweetContract",
								"label": "author",
								"offset": 0,
								"slot": "1",
								"type": "t_address"
							},
							{
								"astId": 7,
								"contract": "twitter.sol:TweetContract",
								"label": "content",
								"offset": 0,
								"slot": "2",
								"type": "t_string_storage"
							},
							{
								"astId": 9,
								"contract": "twitter.sol:TweetContract",
								"label": "createdAt",
								"offset": 0,
								"slot": "3",
								"type": "t_uint256"
							}
						],
						"numberOfBytes": "128"
					},
					"t_uint256": {
						"encoding": "inplace",
						"label": "uint256",
						"numberOfBytes": "32"
					}
				}
			},
			"userdoc": {
				"kind": "user",
				"methods": {},
				"version": 1
			}
		}
	}
}